{
  "contractName": "Dex",
  "abi": [
    {
      "anonymous": false,
      "inputs": [
        {
          "indexed": true,
          "internalType": "uint256",
          "name": "_id",
          "type": "uint256"
        },
        {
          "indexed": true,
          "internalType": "address",
          "name": "_from",
          "type": "address"
        },
        {
          "indexed": false,
          "internalType": "address",
          "name": "_sellTokenAddress",
          "type": "address"
        },
        {
          "indexed": false,
          "internalType": "address",
          "name": "_buyTokenAddress",
          "type": "address"
        },
        {
          "indexed": false,
          "internalType": "uint256",
          "name": "_sellAmount",
          "type": "uint256"
        },
        {
          "indexed": false,
          "internalType": "uint256",
          "name": "_buyAmount",
          "type": "uint256"
        },
        {
          "indexed": false,
          "internalType": "uint256",
          "name": "_timeStamp",
          "type": "uint256"
        }
      ],
      "name": "OrderAddedToMarketEscrow",
      "type": "event"
    },
    {
      "anonymous": false,
      "inputs": [
        {
          "indexed": true,
          "internalType": "uint256",
          "name": "_id",
          "type": "uint256"
        },
        {
          "indexed": true,
          "internalType": "address",
          "name": "_from",
          "type": "address"
        },
        {
          "indexed": false,
          "internalType": "address",
          "name": "_sellTokenAddress",
          "type": "address"
        },
        {
          "indexed": false,
          "internalType": "address",
          "name": "_buyTokenAddress",
          "type": "address"
        },
        {
          "indexed": false,
          "internalType": "uint256",
          "name": "_sellAmount",
          "type": "uint256"
        },
        {
          "indexed": false,
          "internalType": "uint256",
          "name": "_buyAmount",
          "type": "uint256"
        },
        {
          "indexed": false,
          "internalType": "uint256",
          "name": "_timeStamp",
          "type": "uint256"
        }
      ],
      "name": "OrderCancelled",
      "type": "event"
    },
    {
      "anonymous": false,
      "inputs": [
        {
          "indexed": true,
          "internalType": "uint256",
          "name": "_id",
          "type": "uint256"
        },
        {
          "indexed": true,
          "internalType": "address",
          "name": "_owner",
          "type": "address"
        },
        {
          "indexed": false,
          "internalType": "address",
          "name": "_sellTokenAddress",
          "type": "address"
        },
        {
          "indexed": false,
          "internalType": "address",
          "name": "_buyTokenAddress",
          "type": "address"
        },
        {
          "indexed": false,
          "internalType": "uint256",
          "name": "_sellAmount",
          "type": "uint256"
        },
        {
          "indexed": false,
          "internalType": "uint256",
          "name": "_buyAmount",
          "type": "uint256"
        },
        {
          "indexed": false,
          "internalType": "uint256",
          "name": "_timeStamp",
          "type": "uint256"
        }
      ],
      "name": "OrderFulFilled",
      "type": "event"
    },
    {
      "anonymous": false,
      "inputs": [
        {
          "indexed": true,
          "internalType": "address",
          "name": "previousOwner",
          "type": "address"
        },
        {
          "indexed": true,
          "internalType": "address",
          "name": "newOwner",
          "type": "address"
        }
      ],
      "name": "OwnershipTransferred",
      "type": "event"
    },
    {
      "anonymous": false,
      "inputs": [
        {
          "indexed": false,
          "internalType": "address",
          "name": "_tokenAddress",
          "type": "address"
        },
        {
          "indexed": false,
          "internalType": "string",
          "name": "_tokenName",
          "type": "string"
        },
        {
          "indexed": false,
          "internalType": "string",
          "name": "_tokenSymbol",
          "type": "string"
        },
        {
          "indexed": false,
          "internalType": "uint256",
          "name": "_timeStamp",
          "type": "uint256"
        }
      ],
      "name": "TokenAdded",
      "type": "event"
    },
    {
      "anonymous": false,
      "inputs": [
        {
          "indexed": false,
          "internalType": "address",
          "name": "_from",
          "type": "address"
        },
        {
          "indexed": false,
          "internalType": "address",
          "name": "_tokenAddress",
          "type": "address"
        },
        {
          "indexed": false,
          "internalType": "uint256",
          "name": "_amount",
          "type": "uint256"
        },
        {
          "indexed": false,
          "internalType": "uint256",
          "name": "_timeStamp",
          "type": "uint256"
        }
      ],
      "name": "TokenDeposited",
      "type": "event"
    },
    {
      "anonymous": false,
      "inputs": [
        {
          "indexed": false,
          "internalType": "address",
          "name": "_to",
          "type": "address"
        },
        {
          "indexed": false,
          "internalType": "address",
          "name": "_tokenAddress",
          "type": "address"
        },
        {
          "indexed": false,
          "internalType": "uint256",
          "name": "_amount",
          "type": "uint256"
        },
        {
          "indexed": false,
          "internalType": "uint256",
          "name": "_timeStamp",
          "type": "uint256"
        }
      ],
      "name": "TokenWithdrawn",
      "type": "event"
    },
    {
      "constant": true,
      "inputs": [],
      "name": "isOwner",
      "outputs": [
        {
          "internalType": "bool",
          "name": "",
          "type": "bool"
        }
      ],
      "payable": false,
      "stateMutability": "view",
      "type": "function"
    },
    {
      "constant": true,
      "inputs": [
        {
          "internalType": "uint256",
          "name": "",
          "type": "uint256"
        }
      ],
      "name": "listRank",
      "outputs": [
        {
          "internalType": "uint256",
          "name": "nextOffer",
          "type": "uint256"
        },
        {
          "internalType": "uint256",
          "name": "prevOffer",
          "type": "uint256"
        },
        {
          "internalType": "uint256",
          "name": "deleted",
          "type": "uint256"
        }
      ],
      "payable": false,
      "stateMutability": "view",
      "type": "function"
    },
    {
      "constant": true,
      "inputs": [],
      "name": "offerId",
      "outputs": [
        {
          "internalType": "uint256",
          "name": "",
          "type": "uint256"
        }
      ],
      "payable": false,
      "stateMutability": "view",
      "type": "function"
    },
    {
      "constant": true,
      "inputs": [
        {
          "internalType": "uint256",
          "name": "",
          "type": "uint256"
        }
      ],
      "name": "offerList",
      "outputs": [
        {
          "internalType": "uint256",
          "name": "sellAmount",
          "type": "uint256"
        },
        {
          "internalType": "address",
          "name": "sellTokenAddress",
          "type": "address"
        },
        {
          "internalType": "contract IERC20",
          "name": "sellToken",
          "type": "address"
        },
        {
          "internalType": "uint256",
          "name": "buyAmount",
          "type": "uint256"
        },
        {
          "internalType": "address",
          "name": "buyTokenAddress",
          "type": "address"
        },
        {
          "internalType": "contract IERC20",
          "name": "buyToken",
          "type": "address"
        },
        {
          "internalType": "address",
          "name": "who",
          "type": "address"
        },
        {
          "internalType": "uint256",
          "name": "timeStamp",
          "type": "uint256"
        }
      ],
      "payable": false,
      "stateMutability": "view",
      "type": "function"
    },
    {
      "constant": true,
      "inputs": [],
      "name": "owner",
      "outputs": [
        {
          "internalType": "address",
          "name": "",
          "type": "address"
        }
      ],
      "payable": false,
      "stateMutability": "view",
      "type": "function"
    },
    {
      "constant": true,
      "inputs": [
        {
          "internalType": "address",
          "name": "",
          "type": "address"
        },
        {
          "internalType": "address",
          "name": "",
          "type": "address"
        }
      ],
      "name": "pairHighestOffer",
      "outputs": [
        {
          "internalType": "uint256",
          "name": "",
          "type": "uint256"
        }
      ],
      "payable": false,
      "stateMutability": "view",
      "type": "function"
    },
    {
      "constant": true,
      "inputs": [
        {
          "internalType": "address",
          "name": "",
          "type": "address"
        },
        {
          "internalType": "address",
          "name": "",
          "type": "address"
        }
      ],
      "name": "pairID",
      "outputs": [
        {
          "internalType": "uint256",
          "name": "",
          "type": "uint256"
        }
      ],
      "payable": false,
      "stateMutability": "view",
      "type": "function"
    },
    {
      "constant": true,
      "inputs": [
        {
          "internalType": "address",
          "name": "",
          "type": "address"
        },
        {
          "internalType": "address",
          "name": "",
          "type": "address"
        }
      ],
      "name": "pairList",
      "outputs": [
        {
          "internalType": "bool",
          "name": "",
          "type": "bool"
        }
      ],
      "payable": false,
      "stateMutability": "view",
      "type": "function"
    },
    {
      "constant": true,
      "inputs": [
        {
          "internalType": "address",
          "name": "",
          "type": "address"
        },
        {
          "internalType": "address",
          "name": "",
          "type": "address"
        }
      ],
      "name": "pairNumOffers",
      "outputs": [
        {
          "internalType": "uint256",
          "name": "",
          "type": "uint256"
        }
      ],
      "payable": false,
      "stateMutability": "view",
      "type": "function"
    },
    {
      "constant": false,
      "inputs": [],
      "name": "renounceOwnership",
      "outputs": [],
      "payable": false,
      "stateMutability": "nonpayable",
      "type": "function"
    },
    {
      "constant": false,
      "inputs": [
        {
          "internalType": "address",
          "name": "newOwner",
          "type": "address"
        }
      ],
      "name": "transferOwnership",
      "outputs": [],
      "payable": false,
      "stateMutability": "nonpayable",
      "type": "function"
    },
    {
      "constant": false,
      "inputs": [
        {
          "internalType": "address",
          "name": "_tokenAddress",
          "type": "address"
        },
        {
          "internalType": "string",
          "name": "_tokenName",
          "type": "string"
        },
        {
          "internalType": "string",
          "name": "_tokenSymbol",
          "type": "string"
        }
      ],
      "name": "addToken",
      "outputs": [],
      "payable": false,
      "stateMutability": "nonpayable",
      "type": "function"
    },
    {
      "constant": true,
      "inputs": [],
      "name": "getTotalTokens",
      "outputs": [
        {
          "internalType": "uint16",
          "name": "",
          "type": "uint16"
        }
      ],
      "payable": false,
      "stateMutability": "view",
      "type": "function"
    },
    {
      "constant": false,
      "inputs": [
        {
          "internalType": "address",
          "name": "_tokenAddress",
          "type": "address"
        },
        {
          "internalType": "uint256",
          "name": "_amount",
          "type": "uint256"
        }
      ],
      "name": "depositToken",
      "outputs": [],
      "payable": false,
      "stateMutability": "nonpayable",
      "type": "function"
    },
    {
      "constant": false,
      "inputs": [
        {
          "internalType": "address",
          "name": "_tokenAddress",
          "type": "address"
        },
        {
          "internalType": "uint256",
          "name": "_amount",
          "type": "uint256"
        }
      ],
      "name": "withdrawToken",
      "outputs": [],
      "payable": false,
      "stateMutability": "nonpayable",
      "type": "function"
    },
    {
      "constant": true,
      "inputs": [
        {
          "internalType": "address",
          "name": "_tokenAddress",
          "type": "address"
        }
      ],
      "name": "getTokenBalance",
      "outputs": [
        {
          "internalType": "uint256",
          "name": "",
          "type": "uint256"
        }
      ],
      "payable": false,
      "stateMutability": "view",
      "type": "function"
    },
    {
      "constant": false,
      "inputs": [
        {
          "internalType": "address",
          "name": "_tokenAddress1",
          "type": "address"
        },
        {
          "internalType": "uint256",
          "name": "_quantity1",
          "type": "uint256"
        },
        {
          "internalType": "address",
          "name": "_tokenAddress2",
          "type": "address"
        },
        {
          "internalType": "uint256",
          "name": "_quantity2",
          "type": "uint256"
        }
      ],
      "name": "tradeOffer",
      "outputs": [
        {
          "internalType": "uint256",
          "name": "",
          "type": "uint256"
        }
      ],
      "payable": false,
      "stateMutability": "nonpayable",
      "type": "function"
    },
    {
      "constant": false,
      "inputs": [
        {
          "internalType": "address",
          "name": "_tokenAddress1",
          "type": "address"
        },
        {
          "internalType": "address",
          "name": "_tokenAddress2",
          "type": "address"
        }
      ],
      "name": "createTokenPair",
      "outputs": [],
      "payable": false,
      "stateMutability": "nonpayable",
      "type": "function"
    },
    {
      "constant": true,
      "inputs": [
        {
          "internalType": "uint256",
          "name": "_id",
          "type": "uint256"
        }
      ],
      "name": "getPairInfo",
      "outputs": [
        {
          "internalType": "address",
          "name": "",
          "type": "address"
        },
        {
          "internalType": "string",
          "name": "",
          "type": "string"
        },
        {
          "internalType": "address",
          "name": "",
          "type": "address"
        },
        {
          "internalType": "string",
          "name": "",
          "type": "string"
        }
      ],
      "payable": false,
      "stateMutability": "view",
      "type": "function"
    },
    {
      "constant": true,
      "inputs": [],
      "name": "getTotalPairs",
      "outputs": [
        {
          "internalType": "uint256",
          "name": "",
          "type": "uint256"
        }
      ],
      "payable": false,
      "stateMutability": "view",
      "type": "function"
    },
    {
      "constant": true,
      "inputs": [
        {
          "internalType": "address",
          "name": "sellAddress",
          "type": "address"
        },
        {
          "internalType": "address",
          "name": "buyAddress",
          "type": "address"
        }
      ],
      "name": "getOfferSize",
      "outputs": [
        {
          "internalType": "uint256",
          "name": "",
          "type": "uint256"
        }
      ],
      "payable": false,
      "stateMutability": "view",
      "type": "function"
    },
    {
      "constant": true,
      "inputs": [
        {
          "internalType": "uint256",
          "name": "_id",
          "type": "uint256"
        }
      ],
      "name": "getOfferPerId",
      "outputs": [
        {
          "internalType": "address",
          "name": "",
          "type": "address"
        },
        {
          "internalType": "uint256",
          "name": "",
          "type": "uint256"
        },
        {
          "internalType": "address",
          "name": "",
          "type": "address"
        },
        {
          "internalType": "uint256",
          "name": "",
          "type": "uint256"
        }
      ],
      "payable": false,
      "stateMutability": "view",
      "type": "function"
    },
    {
      "constant": true,
      "inputs": [
        {
          "internalType": "address",
          "name": "sellAddress",
          "type": "address"
        },
        {
          "internalType": "address",
          "name": "buyAddress",
          "type": "address"
        }
      ],
      "name": "getBestOffer",
      "outputs": [
        {
          "internalType": "uint256",
          "name": "",
          "type": "uint256"
        }
      ],
      "payable": false,
      "stateMutability": "view",
      "type": "function"
    },
    {
      "constant": true,
      "inputs": [
        {
          "internalType": "uint256",
          "name": "id",
          "type": "uint256"
        }
      ],
      "name": "getNextOffer",
      "outputs": [
        {
          "internalType": "uint256",
          "name": "",
          "type": "uint256"
        }
      ],
      "payable": false,
      "stateMutability": "view",
      "type": "function"
    },
    {
      "constant": true,
      "inputs": [
        {
          "internalType": "uint256",
          "name": "id",
          "type": "uint256"
        }
      ],
      "name": "getPrevOffer",
      "outputs": [
        {
          "internalType": "uint256",
          "name": "",
          "type": "uint256"
        }
      ],
      "payable": false,
      "stateMutability": "view",
      "type": "function"
    },
    {
      "constant": true,
      "inputs": [
        {
          "internalType": "uint256",
          "name": "_id",
          "type": "uint256"
        }
      ],
      "name": "isActive",
      "outputs": [
        {
          "internalType": "bool",
          "name": "",
          "type": "bool"
        }
      ],
      "payable": false,
      "stateMutability": "view",
      "type": "function"
    },
    {
      "constant": false,
      "inputs": [
        {
          "internalType": "uint256",
          "name": "_id",
          "type": "uint256"
        }
      ],
      "name": "cancelOffer",
      "outputs": [
        {
          "internalType": "bool",
          "name": "",
          "type": "bool"
        }
      ],
      "payable": false,
      "stateMutability": "nonpayable",
      "type": "function"
    }
  ],
  "bytecode": "0x6080604052600062000016620000ba60201b60201c565b9050806000806101000a81548173ffffffffffffffffffffffffffffffffffffffff021916908373ffffffffffffffffffffffffffffffffffffffff1602179055508073ffffffffffffffffffffffffffffffffffffffff16600073ffffffffffffffffffffffffffffffffffffffff167f8be0079c531659141344cd1fd0a4f28419497f9722a3daafe3b4186f6b6457e060405160405180910390a350620000c2565b600033905090565b615cd480620000d26000396000f3fe608060405234801561001057600080fd5b50600436106101a95760003560e01c80638da5cb5b116100f9578063bc1bb98f11610097578063e9cd9eec11610071578063e9cd9eec14610c6c578063ef706adf14610d1b578063f08b82e614610d61578063f2fde38b14610d87576101a9565b8063bc1bb98f14610a64578063d4397c6814610a82578063e73c201914610afa576101a9565b80639d9e874e116100d35780639d9e874e146107bf5780639e281a981461084b578063b2987b1814610899578063b8bd751c146109e8576101a9565b80638da5cb5b146107035780638f32d59b1461074d5780639a30c6001461076f576101a9565b80634aac77e411610166578063741be3d911610140578063741be3d91461059f57806376550908146105e157806382afd23b14610659578063882674d31461069f576101a9565b80634aac77e4146103a457806370bb79dc1461051d578063715018a614610595576101a9565b80630374fc6f146101ae578063078ee141146102265780630fe222771461026857806321ce9f91146102e0578063338b5dea146102fe5780633aecd0e31461034c575b600080fd5b610210600480360360408110156101c457600080fd5b81019080803573ffffffffffffffffffffffffffffffffffffffff169060200190929190803573ffffffffffffffffffffffffffffffffffffffff169060200190929190505050610dcb565b6040518082815260200191505060405180910390f35b6102526004803603602081101561023c57600080fd5b8101908080359060200190929190505050610e52565b6040518082815260200191505060405180910390f35b6102ca6004803603604081101561027e57600080fd5b81019080803573ffffffffffffffffffffffffffffffffffffffff169060200190929190803573ffffffffffffffffffffffffffffffffffffffff169060200190929190505050610e72565b6040518082815260200191505060405180910390f35b6102e8610e97565b6040518082815260200191505060405180910390f35b61034a6004803603604081101561031457600080fd5b81019080803573ffffffffffffffffffffffffffffffffffffffff16906020019092919080359060200190929190505050610e9d565b005b61038e6004803603602081101561036257600080fd5b81019080803573ffffffffffffffffffffffffffffffffffffffff16906020019092919050505061139f565b6040518082815260200191505060405180910390f35b6103d0600480360360208110156103ba57600080fd5b81019080803590602001909291905050506114fd565b604051808573ffffffffffffffffffffffffffffffffffffffff1673ffffffffffffffffffffffffffffffffffffffff168152602001806020018473ffffffffffffffffffffffffffffffffffffffff1673ffffffffffffffffffffffffffffffffffffffff16815260200180602001838103835286818151815260200191508051906020019080838360005b8381101561047857808201518184015260208101905061045d565b50505050905090810190601f1680156104a55780820380516001836020036101000a031916815260200191505b50838103825284818151815260200191508051906020019080838360005b838110156104de5780820151818401526020810190506104c3565b50505050905090810190601f16801561050b5780820380516001836020036101000a031916815260200191505b50965050505050505060405180910390f35b61057f6004803603604081101561053357600080fd5b81019080803573ffffffffffffffffffffffffffffffffffffffff169060200190929190803573ffffffffffffffffffffffffffffffffffffffff169060200190929190505050611796565b6040518082815260200191505060405180910390f35b61059d6117bb565b005b6105cb600480360360208110156105b557600080fd5b81019080803590602001909291905050506118f4565b6040518082815260200191505060405180910390f35b610643600480360360408110156105f757600080fd5b81019080803573ffffffffffffffffffffffffffffffffffffffff169060200190929190803573ffffffffffffffffffffffffffffffffffffffff169060200190929190505050611914565b6040518082815260200191505060405180910390f35b6106856004803603602081101561066f57600080fd5b810190808035906020019092919050505061199b565b604051808215151515815260200191505060405180910390f35b610701600480360360408110156106b557600080fd5b81019080803573ffffffffffffffffffffffffffffffffffffffff169060200190929190803573ffffffffffffffffffffffffffffffffffffffff1690602001909291905050506119c3565b005b61070b612008565b604051808273ffffffffffffffffffffffffffffffffffffffff1673ffffffffffffffffffffffffffffffffffffffff16815260200191505060405180910390f35b610755612031565b604051808215151515815260200191505060405180910390f35b61079b6004803603602081101561078557600080fd5b810190808035906020019092919050505061208f565b60405180848152602001838152602001828152602001935050505060405180910390f35b610835600480360360808110156107d557600080fd5b81019080803573ffffffffffffffffffffffffffffffffffffffff16906020019092919080359060200190929190803573ffffffffffffffffffffffffffffffffffffffff169060200190929190803590602001909291905050506120b9565b6040518082815260200191505060405180910390f35b6108976004803603604081101561086157600080fd5b81019080803573ffffffffffffffffffffffffffffffffffffffff169060200190929190803590602001909291905050506125b1565b005b6108c5600480360360208110156108af57600080fd5b8101908080359060200190929190505050612adf565b604051808981526020018873ffffffffffffffffffffffffffffffffffffffff1673ffffffffffffffffffffffffffffffffffffffff1681526020018773ffffffffffffffffffffffffffffffffffffffff1673ffffffffffffffffffffffffffffffffffffffff1681526020018681526020018573ffffffffffffffffffffffffffffffffffffffff1673ffffffffffffffffffffffffffffffffffffffff1681526020018473ffffffffffffffffffffffffffffffffffffffff1673ffffffffffffffffffffffffffffffffffffffff1681526020018373ffffffffffffffffffffffffffffffffffffffff1673ffffffffffffffffffffffffffffffffffffffff1681526020018281526020019850505050505050505060405180910390f35b610a4a600480360360408110156109fe57600080fd5b81019080803573ffffffffffffffffffffffffffffffffffffffff169060200190929190803573ffffffffffffffffffffffffffffffffffffffff169060200190929190505050612bc7565b604051808215151515815260200191505060405180910390f35b610a6c612bf6565b6040518082815260200191505060405180910390f35b610ae460048036036040811015610a9857600080fd5b81019080803573ffffffffffffffffffffffffffffffffffffffff169060200190929190803573ffffffffffffffffffffffffffffffffffffffff169060200190929190505050612c00565b6040518082815260200191505060405180910390f35b610c6a60048036036060811015610b1057600080fd5b81019080803573ffffffffffffffffffffffffffffffffffffffff16906020019092919080359060200190640100000000811115610b4d57600080fd5b820183602082011115610b5f57600080fd5b80359060200191846001830284011164010000000083111715610b8157600080fd5b91908080601f016020809104026020016040519081016040528093929190818152602001838380828437600081840152601f19601f82011690508083019250505050505050919291929080359060200190640100000000811115610be457600080fd5b820183602082011115610bf657600080fd5b80359060200191846001830284011164010000000083111715610c1857600080fd5b91908080601f016020809104026020016040519081016040528093929190818152602001838380828437600081840152601f19601f820116905080830192505050505050509192919290505050612c25565b005b610c9860048036036020811015610c8257600080fd5b81019080803590602001909291905050506130f2565b604051808573ffffffffffffffffffffffffffffffffffffffff1673ffffffffffffffffffffffffffffffffffffffff1681526020018481526020018373ffffffffffffffffffffffffffffffffffffffff1673ffffffffffffffffffffffffffffffffffffffff16815260200182815260200194505050505060405180910390f35b610d4760048036036020811015610d3157600080fd5b8101908080359060200190929190505050613311565b604051808215151515815260200191505060405180910390f35b610d69613889565b604051808261ffff1661ffff16815260200191505060405180910390f35b610dc960048036036020811015610d9d57600080fd5b81019080803573ffffffffffffffffffffffffffffffffffffffff1690602001909291905050506138a1565b005b6000600a60008473ffffffffffffffffffffffffffffffffffffffff1673ffffffffffffffffffffffffffffffffffffffff16815260200190815260200160002060008373ffffffffffffffffffffffffffffffffffffffff1673ffffffffffffffffffffffffffffffffffffffff16815260200190815260200160002054905092915050565b600060096000838152602001908152602001600020600001549050919050565b600c602052816000526040600020602052806000526040600020600091509150505481565b60025481565b60011515600560008473ffffffffffffffffffffffffffffffffffffffff1673ffffffffffffffffffffffffffffffffffffffff16815260200190815260200160002060009054906101000a900460ff16151514610f46576040517f08c379a000000000000000000000000000000000000000000000000000000000815260040180806020018281038252602b815260200180615b9d602b913960400191505060405180910390fd5b6000600660008473ffffffffffffffffffffffffffffffffffffffff1673ffffffffffffffffffffffffffffffffffffffff16815260200190815260200160002060009054906101000a900461ffff169050600073ffffffffffffffffffffffffffffffffffffffff16600360008361ffff1661ffff16815260200190815260200160002060020160029054906101000a900473ffffffffffffffffffffffffffffffffffffffff1673ffffffffffffffffffffffffffffffffffffffff161415611079576040517f08c379a00000000000000000000000000000000000000000000000000000000081526004018080602001828103825260098152602001807f416464726573732030000000000000000000000000000000000000000000000081525060200191505060405180910390fd5b6000600360008361ffff1661ffff16815260200190815260200160002060020160029054906101000a900473ffffffffffffffffffffffffffffffffffffffff169050600115158173ffffffffffffffffffffffffffffffffffffffff166323b872dd3330876040518463ffffffff1660e01b8152600401808473ffffffffffffffffffffffffffffffffffffffff1673ffffffffffffffffffffffffffffffffffffffff1681526020018373ffffffffffffffffffffffffffffffffffffffff1673ffffffffffffffffffffffffffffffffffffffff1681526020018281526020019350505050602060405180830381600087803b15801561117b57600080fd5b505af115801561118f573d6000803e3d6000fd5b505050506040513d60208110156111a557600080fd5b810190808051906020019092919050505015151461122b576040517f08c379a00000000000000000000000000000000000000000000000000000000081526004018080602001828103825260148152602001807f546f6b656e204465706f736974204661696c656400000000000000000000000081525060200191505060405180910390fd5b61129683600760003373ffffffffffffffffffffffffffffffffffffffff1673ffffffffffffffffffffffffffffffffffffffff16815260200190815260200160002060008561ffff1661ffff1681526020019081526020016000205461392790919063ffffffff16565b600760003373ffffffffffffffffffffffffffffffffffffffff1673ffffffffffffffffffffffffffffffffffffffff16815260200190815260200160002060008461ffff1661ffff168152602001908152602001600020819055507f080c225c8e9d9f966820ef915f5f555d575e9c3a188f1252d19e94aa2250f09d33858542604051808573ffffffffffffffffffffffffffffffffffffffff1673ffffffffffffffffffffffffffffffffffffffff1681526020018473ffffffffffffffffffffffffffffffffffffffff1673ffffffffffffffffffffffffffffffffffffffff16815260200183815260200182815260200194505050505060405180910390a150505050565b600060011515600560008473ffffffffffffffffffffffffffffffffffffffff1673ffffffffffffffffffffffffffffffffffffffff16815260200190815260200160002060009054906101000a900460ff1615151461144a576040517f08c379a000000000000000000000000000000000000000000000000000000000815260040180806020018281038252602b815260200180615b9d602b913960400191505060405180910390fd5b6000600660008473ffffffffffffffffffffffffffffffffffffffff1673ffffffffffffffffffffffffffffffffffffffff16815260200190815260200160002060009054906101000a900461ffff169050600760003373ffffffffffffffffffffffffffffffffffffffff1673ffffffffffffffffffffffffffffffffffffffff16815260200190815260200160002060008261ffff1661ffff16815260200190815260200160002054915050919050565b600060606000606060036000600e600088815260200190815260200160002060010160009054906101000a900461ffff1661ffff1661ffff16815260200190815260200160002060020160029054906101000a900473ffffffffffffffffffffffffffffffffffffffff1660036000600e600089815260200190815260200160002060010160009054906101000a900461ffff1661ffff1661ffff16815260200190815260200160002060010160036000600e60008a815260200190815260200160002060010160029054906101000a900461ffff1661ffff1661ffff16815260200190815260200160002060020160029054906101000a900473ffffffffffffffffffffffffffffffffffffffff1660036000600e60008b815260200190815260200160002060010160029054906101000a900461ffff1661ffff1661ffff168152602001908152602001600020600101828054600181600116156101000203166002900480601f0160208091040260200160405190810160405280929190818152602001828054600181600116156101000203166002900480156116e45780601f106116b9576101008083540402835291602001916116e4565b820191906000526020600020905b8154815290600101906020018083116116c757829003601f168201915b50505050509250808054600181600116156101000203166002900480601f0160208091040260200160405190810160405280929190818152602001828054600181600116156101000203166002900480156117805780601f1061175557610100808354040283529160200191611780565b820191906000526020600020905b81548152906001019060200180831161176357829003601f168201915b5050505050905093509350935093509193509193565b600b602052816000526040600020602052806000526040600020600091509150505481565b6117c3612031565b611835576040517f08c379a00000000000000000000000000000000000000000000000000000000081526004018080602001828103825260208152602001807f4f776e61626c653a2063616c6c6572206973206e6f7420746865206f776e657281525060200191505060405180910390fd5b600073ffffffffffffffffffffffffffffffffffffffff166000809054906101000a900473ffffffffffffffffffffffffffffffffffffffff1673ffffffffffffffffffffffffffffffffffffffff167f8be0079c531659141344cd1fd0a4f28419497f9722a3daafe3b4186f6b6457e060405160405180910390a360008060006101000a81548173ffffffffffffffffffffffffffffffffffffffff021916908373ffffffffffffffffffffffffffffffffffffffff160217905550565b600060096000838152602001908152602001600020600101549050919050565b6000600b60008473ffffffffffffffffffffffffffffffffffffffff1673ffffffffffffffffffffffffffffffffffffffff16815260200190815260200160002060008373ffffffffffffffffffffffffffffffffffffffff1673ffffffffffffffffffffffffffffffffffffffff16815260200190815260200160002054905092915050565b6000806000600160008581526020019081526020016000206007015411905080915050919050565b60011515600560008473ffffffffffffffffffffffffffffffffffffffff1673ffffffffffffffffffffffffffffffffffffffff16815260200190815260200160002060009054906101000a900460ff16151514611a6c576040517f08c379a000000000000000000000000000000000000000000000000000000000815260040180806020018281038252602b815260200180615c0f602b913960400191505060405180910390fd5b60011515600560008373ffffffffffffffffffffffffffffffffffffffff1673ffffffffffffffffffffffffffffffffffffffff16815260200190815260200160002060009054906101000a900460ff16151514611b15576040517f08c379a000000000000000000000000000000000000000000000000000000000815260040180806020018281038252602b815260200180615c0f602b913960400191505060405180910390fd5b600d60008373ffffffffffffffffffffffffffffffffffffffff1673ffffffffffffffffffffffffffffffffffffffff16815260200190815260200160002060008273ffffffffffffffffffffffffffffffffffffffff1673ffffffffffffffffffffffffffffffffffffffff16815260200190815260200160002060009054906101000a900460ff1615611c12576040517f08c379a00000000000000000000000000000000000000000000000000000000081526004018080602001828103825260198152602001807f546f6b656e205061697220616c7265616479204578697374730000000000000081525060200191505060405180910390fd5b8073ffffffffffffffffffffffffffffffffffffffff168273ffffffffffffffffffffffffffffffffffffffff161415611c97576040517f08c379a0000000000000000000000000000000000000000000000000000000008152600401808060200182810382526026815260200180615be96026913960400191505060405180910390fd5b6008600081548092919060010191905055506001600d60008473ffffffffffffffffffffffffffffffffffffffff1673ffffffffffffffffffffffffffffffffffffffff16815260200190815260200160002060008373ffffffffffffffffffffffffffffffffffffffff1673ffffffffffffffffffffffffffffffffffffffff16815260200190815260200160002060006101000a81548160ff0219169083151502179055506001600d60008373ffffffffffffffffffffffffffffffffffffffff1673ffffffffffffffffffffffffffffffffffffffff16815260200190815260200160002060008473ffffffffffffffffffffffffffffffffffffffff1673ffffffffffffffffffffffffffffffffffffffff16815260200190815260200160002060006101000a81548160ff021916908315150217905550600854600c60008473ffffffffffffffffffffffffffffffffffffffff1673ffffffffffffffffffffffffffffffffffffffff16815260200190815260200160002060008373ffffffffffffffffffffffffffffffffffffffff1673ffffffffffffffffffffffffffffffffffffffff16815260200190815260200160002081905550600854600c60008373ffffffffffffffffffffffffffffffffffffffff1673ffffffffffffffffffffffffffffffffffffffff16815260200190815260200160002060008473ffffffffffffffffffffffffffffffffffffffff1673ffffffffffffffffffffffffffffffffffffffff16815260200190815260200160002081905550600854600e60006008548152602001908152602001600020600001819055506000600660008473ffffffffffffffffffffffffffffffffffffffff1673ffffffffffffffffffffffffffffffffffffffff16815260200190815260200160002060009054906101000a900461ffff1690506000600660008473ffffffffffffffffffffffffffffffffffffffff1673ffffffffffffffffffffffffffffffffffffffff16815260200190815260200160002060009054906101000a900461ffff16905081600e6000600854815260200190815260200160002060010160006101000a81548161ffff021916908361ffff16021790555080600e6000600854815260200190815260200160002060010160026101000a81548161ffff021916908361ffff16021790555050505050565b60008060009054906101000a900473ffffffffffffffffffffffffffffffffffffffff16905090565b60008060009054906101000a900473ffffffffffffffffffffffffffffffffffffffff1673ffffffffffffffffffffffffffffffffffffffff166120736139af565b73ffffffffffffffffffffffffffffffffffffffff1614905090565b60096020528060005260406000206000915090508060000154908060010154908060020154905083565b600060011515600d60008773ffffffffffffffffffffffffffffffffffffffff1673ffffffffffffffffffffffffffffffffffffffff16815260200190815260200160002060008573ffffffffffffffffffffffffffffffffffffffff1673ffffffffffffffffffffffffffffffffffffffff16815260200190815260200160002060009054906101000a900460ff161515146121be576040517f08c379a000000000000000000000000000000000000000000000000000000000815260040180806020018281038252601e8152602001807f5468697320546f6b656e205061697220446f6573206e6f74206578697374000081525060200191505060405180910390fd5b600060149054906101000a900460ff1615612241576040517f08c379a00000000000000000000000000000000000000000000000000000000081526004018080602001828103825260138152602001807f7265656e747279206e6f7420616c6c6f7765640000000000000000000000000081525060200191505060405180910390fd5b6000600660008773ffffffffffffffffffffffffffffffffffffffff1673ffffffffffffffffffffffffffffffffffffffff16815260200190815260200160002060009054906101000a900461ffff1690506000600660008673ffffffffffffffffffffffffffffffffffffffff1673ffffffffffffffffffffffffffffffffffffffff16815260200190815260200160002060009054906101000a900461ffff169050600073ffffffffffffffffffffffffffffffffffffffff16600360008461ffff1661ffff16815260200190815260200160002060020160029054906101000a900473ffffffffffffffffffffffffffffffffffffffff1673ffffffffffffffffffffffffffffffffffffffff1614156123c6576040517f08c379a00000000000000000000000000000000000000000000000000000000081526004018080602001828103825260098152602001807f416464726573732030000000000000000000000000000000000000000000000081525060200191505060405180910390fd5b600073ffffffffffffffffffffffffffffffffffffffff16600360008361ffff1661ffff16815260200190815260200160002060020160029054906101000a900473ffffffffffffffffffffffffffffffffffffffff1673ffffffffffffffffffffffffffffffffffffffff1614156124a7576040517f08c379a00000000000000000000000000000000000000000000000000000000081526004018080602001828103825260098152602001807f416464726573732030000000000000000000000000000000000000000000000081525060200191505060405180910390fd5b6000861161251d576040517f08c379a00000000000000000000000000000000000000000000000000000000081526004018080602001828103825260198152602001807f53656c6c20416d6f756e742073686f756c64206265203e20300000000000000081525060200191505060405180910390fd5b60008411612593576040517f08c379a00000000000000000000000000000000000000000000000000000000081526004018080602001828103825260188152602001807f42757920416d6f756e742073686f756c64206265203e2030000000000000000081525060200191505060405180910390fd5b60006125a1888888886139b7565b9050809350505050949350505050565b60011515600560008473ffffffffffffffffffffffffffffffffffffffff1673ffffffffffffffffffffffffffffffffffffffff16815260200190815260200160002060009054906101000a900460ff1615151461265a576040517f08c379a000000000000000000000000000000000000000000000000000000000815260040180806020018281038252602b815260200180615b9d602b913960400191505060405180910390fd5b6000600660008473ffffffffffffffffffffffffffffffffffffffff1673ffffffffffffffffffffffffffffffffffffffff16815260200190815260200160002060009054906101000a900461ffff169050600073ffffffffffffffffffffffffffffffffffffffff16600360008361ffff1661ffff16815260200190815260200160002060020160029054906101000a900473ffffffffffffffffffffffffffffffffffffffff1673ffffffffffffffffffffffffffffffffffffffff16141561278d576040517f08c379a00000000000000000000000000000000000000000000000000000000081526004018080602001828103825260098152602001807f416464726573732030000000000000000000000000000000000000000000000081525060200191505060405180910390fd5b6000600360008361ffff1661ffff16815260200190815260200160002060020160029054906101000a900473ffffffffffffffffffffffffffffffffffffffff169050600061283d84600760003373ffffffffffffffffffffffffffffffffffffffff1673ffffffffffffffffffffffffffffffffffffffff16815260200190815260200160002060008661ffff1661ffff16815260200190815260200160002054613c0590919063ffffffff16565b90506000811015612899576040517f08c379a000000000000000000000000000000000000000000000000000000000815260040180806020018281038252602f815260200180615c71602f913960400191505060405180910390fd5b80600760003373ffffffffffffffffffffffffffffffffffffffff1673ffffffffffffffffffffffffffffffffffffffff16815260200190815260200160002060008561ffff1661ffff16815260200190815260200160002081905550600115158273ffffffffffffffffffffffffffffffffffffffff1663a9059cbb33876040518363ffffffff1660e01b8152600401808373ffffffffffffffffffffffffffffffffffffffff1673ffffffffffffffffffffffffffffffffffffffff16815260200182815260200192505050602060405180830381600087803b15801561298157600080fd5b505af1158015612995573d6000803e3d6000fd5b505050506040513d60208110156129ab57600080fd5b8101908080519060200190929190505050151514612a31576040517f08c379a00000000000000000000000000000000000000000000000000000000081526004018080602001828103825260178152602001807f546f6b656e205769746864726177616c204661696c656400000000000000000081525060200191505060405180910390fd5b7f7a163cc3488948c84f02deddd608c9465235f04837413e5f1051007d0da746d233868642604051808573ffffffffffffffffffffffffffffffffffffffff1673ffffffffffffffffffffffffffffffffffffffff1681526020018473ffffffffffffffffffffffffffffffffffffffff1673ffffffffffffffffffffffffffffffffffffffff16815260200183815260200182815260200194505050505060405180910390a15050505050565b60016020528060005260406000206000915090508060000154908060010160009054906101000a900473ffffffffffffffffffffffffffffffffffffffff16908060020160009054906101000a900473ffffffffffffffffffffffffffffffffffffffff16908060030154908060040160009054906101000a900473ffffffffffffffffffffffffffffffffffffffff16908060050160009054906101000a900473ffffffffffffffffffffffffffffffffffffffff16908060060160009054906101000a900473ffffffffffffffffffffffffffffffffffffffff16908060070154905088565b600d6020528160005260406000206020528060005260406000206000915091509054906101000a900460ff1681565b6000600854905090565b600a602052816000526040600020602052806000526040600020600091509150505481565b612c2d612031565b612c9f576040517f08c379a00000000000000000000000000000000000000000000000000000000081526004018080602001828103825260208152602001807f4f776e61626c653a2063616c6c6572206973206e6f7420746865206f776e657281525060200191505060405180910390fd5b60001515600560008573ffffffffffffffffffffffffffffffffffffffff1673ffffffffffffffffffffffffffffffffffffffff16815260200190815260200160002060009054906101000a900460ff16151514612d65576040517f08c379a00000000000000000000000000000000000000000000000000000000081526004018080602001828103825260148152602001807f546f6b656e20416c72656164792045786973747300000000000000000000000081525060200191505060405180910390fd5b6001600560008573ffffffffffffffffffffffffffffffffffffffff1673ffffffffffffffffffffffffffffffffffffffff16815260200190815260200160002060006101000a81548160ff0219169083151502179055506004600081819054906101000a900461ffff168092919060010191906101000a81548161ffff021916908361ffff160217905550508260036000600460009054906101000a900461ffff1661ffff1661ffff16815260200190815260200160002060020160026101000a81548173ffffffffffffffffffffffffffffffffffffffff021916908373ffffffffffffffffffffffffffffffffffffffff1602179055508160036000600460009054906101000a900461ffff1661ffff1661ffff1681526020019081526020016000206000019080519060200190612ea19291906159f2565b508060036000600460009054906101000a900461ffff1661ffff1661ffff1681526020019081526020016000206001019080519060200190612ee49291906159f2565b50600460009054906101000a900461ffff1660036000600460009054906101000a900461ffff1661ffff1661ffff16815260200190815260200160002060020160006101000a81548161ffff021916908361ffff160217905550600460009054906101000a900461ffff16600660008573ffffffffffffffffffffffffffffffffffffffff1673ffffffffffffffffffffffffffffffffffffffff16815260200190815260200160002060006101000a81548161ffff021916908361ffff1602179055507ff711540f34d729d036431d051198fe18d9fd348ad9aa68dfc8b27d5c5f27710783838342604051808573ffffffffffffffffffffffffffffffffffffffff1673ffffffffffffffffffffffffffffffffffffffff1681526020018060200180602001848152602001838103835286818151815260200191508051906020019080838360005b8381101561304957808201518184015260208101905061302e565b50505050905090810190601f1680156130765780820380516001836020036101000a031916815260200191505b50838103825285818151815260200191508051906020019080838360005b838110156130af578082015181840152602081019050613094565b50505050905090810190601f1680156130dc5780820380516001836020036101000a031916815260200191505b50965050505050505060405180910390a1505050565b600080600080613100615a72565b6001600087815260200190815260200160002060405180610100016040529081600082015481526020016001820160009054906101000a900473ffffffffffffffffffffffffffffffffffffffff1673ffffffffffffffffffffffffffffffffffffffff1673ffffffffffffffffffffffffffffffffffffffff1681526020016002820160009054906101000a900473ffffffffffffffffffffffffffffffffffffffff1673ffffffffffffffffffffffffffffffffffffffff1673ffffffffffffffffffffffffffffffffffffffff168152602001600382015481526020016004820160009054906101000a900473ffffffffffffffffffffffffffffffffffffffff1673ffffffffffffffffffffffffffffffffffffffff1673ffffffffffffffffffffffffffffffffffffffff1681526020016005820160009054906101000a900473ffffffffffffffffffffffffffffffffffffffff1673ffffffffffffffffffffffffffffffffffffffff1673ffffffffffffffffffffffffffffffffffffffff1681526020016006820160009054906101000a900473ffffffffffffffffffffffffffffffffffffffff1673ffffffffffffffffffffffffffffffffffffffff1673ffffffffffffffffffffffffffffffffffffffff168152602001600782015481525050905080602001518160000151826080015183606001519450945094509450509193509193565b600061331c8261199b565b801561338957503373ffffffffffffffffffffffffffffffffffffffff166001600084815260200190815260200160002060060160009054906101000a900473ffffffffffffffffffffffffffffffffffffffff1673ffffffffffffffffffffffffffffffffffffffff16145b6133de576040517f08c379a0000000000000000000000000000000000000000000000000000000008152600401808060200182810382526037815260200180615c3a6037913960400191505060405180910390fd5b6133e782613c4f565b6133ef615a72565b6001600084815260200190815260200160002060405180610100016040529081600082015481526020016001820160009054906101000a900473ffffffffffffffffffffffffffffffffffffffff1673ffffffffffffffffffffffffffffffffffffffff1673ffffffffffffffffffffffffffffffffffffffff1681526020016002820160009054906101000a900473ffffffffffffffffffffffffffffffffffffffff1673ffffffffffffffffffffffffffffffffffffffff1673ffffffffffffffffffffffffffffffffffffffff168152602001600382015481526020016004820160009054906101000a900473ffffffffffffffffffffffffffffffffffffffff1673ffffffffffffffffffffffffffffffffffffffff1673ffffffffffffffffffffffffffffffffffffffff1681526020016005820160009054906101000a900473ffffffffffffffffffffffffffffffffffffffff1673ffffffffffffffffffffffffffffffffffffffff1673ffffffffffffffffffffffffffffffffffffffff1681526020016006820160009054906101000a900473ffffffffffffffffffffffffffffffffffffffff1673ffffffffffffffffffffffffffffffffffffffff1673ffffffffffffffffffffffffffffffffffffffff1681526020016007820154815250509050600160008481526020019081526020016000206000808201600090556001820160006101000a81549073ffffffffffffffffffffffffffffffffffffffff02191690556002820160006101000a81549073ffffffffffffffffffffffffffffffffffffffff021916905560038201600090556004820160006101000a81549073ffffffffffffffffffffffffffffffffffffffff02191690556005820160006101000a81549073ffffffffffffffffffffffffffffffffffffffff02191690556006820160006101000a81549073ffffffffffffffffffffffffffffffffffffffff021916905560078201600090555050806040015173ffffffffffffffffffffffffffffffffffffffff1663a9059cbb8260c0015183600001516040518363ffffffff1660e01b8152600401808373ffffffffffffffffffffffffffffffffffffffff1673ffffffffffffffffffffffffffffffffffffffff16815260200182815260200192505050602060405180830381600087803b15801561376057600080fd5b505af1158015613774573d6000803e3d6000fd5b505050506040513d602081101561378a57600080fd5b81019080805190602001909291905050506137a457600080fd5b8060c0015173ffffffffffffffffffffffffffffffffffffffff16837ff3a089f905d5398d6f26af0b65ed2112816899380dc00bbeeab039af110bdd72836020015184608001518560000151866060015142604051808673ffffffffffffffffffffffffffffffffffffffff1673ffffffffffffffffffffffffffffffffffffffff1681526020018573ffffffffffffffffffffffffffffffffffffffff1673ffffffffffffffffffffffffffffffffffffffff1681526020018481526020018381526020018281526020019550505050505060405180910390a36001915050919050565b6000600460009054906101000a900461ffff16905090565b6138a9612031565b61391b576040517f08c379a00000000000000000000000000000000000000000000000000000000081526004018080602001828103825260208152602001807f4f776e61626c653a2063616c6c6572206973206e6f7420746865206f776e657281525060200191505060405180910390fd5b613924816140d6565b50565b6000808284019050838110156139a5576040517f08c379a000000000000000000000000000000000000000000000000000000000815260040180806020018281038252601b8152602001807f536166654d6174683a206164646974696f6e206f766572666c6f77000000000081525060200191505060405180910390fd5b8091505092915050565b600033905090565b60008060008060008060008060005b6000600a60008d73ffffffffffffffffffffffffffffffffffffffff1673ffffffffffffffffffffffffffffffffffffffff16815260200190815260200160002060008f73ffffffffffffffffffffffffffffffffffffffff1673ffffffffffffffffffffffffffffffffffffffff168152602001908152602001600020541115613bc557600a60008c73ffffffffffffffffffffffffffffffffffffffff1673ffffffffffffffffffffffffffffffffffffffff16815260200190815260200160002060008e73ffffffffffffffffffffffffffffffffffffffff1673ffffffffffffffffffffffffffffffffffffffff1681526020019081526020016000205497506001600089815260200190815260200160002060030154945060016000898152602001908152602001600020600001549550613b0f858b61421a90919063ffffffff16565b9350613b24868d61421a90919063ffffffff16565b925082841115613b3357613bc5565b89861015613b4357859150613b47565b8991505b613b5188836142a0565b89965089861015613b6457859150613b68565b8991505b613b7b828b613c0590919063ffffffff16565b9950613b908c8b61421a90919063ffffffff16565b9350613ba5878561495790919063ffffffff16565b9b5060008c1480613bb6575060008a145b15613bc057613bc5565b6139c6565b60008a118015613bd5575060008c115b15613bf257613be68d8d8d8d6149a1565b9050613bf181615040565b5b8098505050505050505050949350505050565b6000613c4783836040518060400160405280601e81526020017f536166654d6174683a207375627472616374696f6e206f766572666c6f7700008152506152f6565b905092915050565b60006001600083815260200190815260200160002060040160009054906101000a900473ffffffffffffffffffffffffffffffffffffffff16905060006001600084815260200190815260200160002060010160009054906101000a900473ffffffffffffffffffffffffffffffffffffffff1690506000600b60008373ffffffffffffffffffffffffffffffffffffffff1673ffffffffffffffffffffffffffffffffffffffff16815260200190815260200160002060008473ffffffffffffffffffffffffffffffffffffffff1673ffffffffffffffffffffffffffffffffffffffff1681526020019081526020016000205411613d4e57600080fd5b60006009600085815260200190815260200160002060020154148015613d795750613d78836153b6565b5b613deb576040517f08c379a00000000000000000000000000000000000000000000000000000000081526004018080602001828103825260208152602001807f546865204944206973206e6f7420696e2074686520736f72746564206c69737481525060200191505060405180910390fd5b600a60008273ffffffffffffffffffffffffffffffffffffffff1673ffffffffffffffffffffffffffffffffffffffff16815260200190815260200160002060008373ffffffffffffffffffffffffffffffffffffffff1673ffffffffffffffffffffffffffffffffffffffff168152602001908152602001600020548314613ef2578260096000600960008781526020019081526020016000206000015481526020019081526020016000206001015414613ea657600080fd5b6009600084815260200190815260200160002060010154600960006009600087815260200190815260200160002060000154815260200190815260200160002060010181905550613f8a565b6009600084815260200190815260200160002060010154600a60008373ffffffffffffffffffffffffffffffffffffffff1673ffffffffffffffffffffffffffffffffffffffff16815260200190815260200160002060008473ffffffffffffffffffffffffffffffffffffffff1673ffffffffffffffffffffffffffffffffffffffff168152602001908152602001600020819055505b6000600960008581526020019081526020016000206001015414614028578260096000600960008781526020019081526020016000206001015481526020019081526020016000206000015414613fe057600080fd5b60096000848152602001908152602001600020600001546009600060096000878152602001908152602001600020600101548152602001908152602001600020600001819055505b600b60008273ffffffffffffffffffffffffffffffffffffffff1673ffffffffffffffffffffffffffffffffffffffff16815260200190815260200160002060008373ffffffffffffffffffffffffffffffffffffffff1673ffffffffffffffffffffffffffffffffffffffff168152602001908152602001600020600081548092919060019003919050555060016009600085815260200190815260200160002060020181905550505050565b600073ffffffffffffffffffffffffffffffffffffffff168173ffffffffffffffffffffffffffffffffffffffff16141561415c576040517f08c379a0000000000000000000000000000000000000000000000000000000008152600401808060200182810382526026815260200180615b776026913960400191505060405180910390fd5b8073ffffffffffffffffffffffffffffffffffffffff166000809054906101000a900473ffffffffffffffffffffffffffffffffffffffff1673ffffffffffffffffffffffffffffffffffffffff167f8be0079c531659141344cd1fd0a4f28419497f9722a3daafe3b4186f6b6457e060405160405180910390a3806000806101000a81548173ffffffffffffffffffffffffffffffffffffffff021916908373ffffffffffffffffffffffffffffffffffffffff16021790555050565b60008083141561422d576000905061429a565b600082840290508284828161423e57fe5b0414614295576040517f08c379a0000000000000000000000000000000000000000000000000000000008152600401808060200182810382526021815260200180615bc86021913960400191505060405180910390fd5b809150505b92915050565b600060149054906101000a900460ff16156142ba57600080fd5b6001600060146101000a81548160ff0219169083151502179055506142dd615a72565b6001600084815260200190815260200160002060405180610100016040529081600082015481526020016001820160009054906101000a900473ffffffffffffffffffffffffffffffffffffffff1673ffffffffffffffffffffffffffffffffffffffff1673ffffffffffffffffffffffffffffffffffffffff1681526020016002820160009054906101000a900473ffffffffffffffffffffffffffffffffffffffff1673ffffffffffffffffffffffffffffffffffffffff1673ffffffffffffffffffffffffffffffffffffffff168152602001600382015481526020016004820160009054906101000a900473ffffffffffffffffffffffffffffffffffffffff1673ffffffffffffffffffffffffffffffffffffffff1673ffffffffffffffffffffffffffffffffffffffff1681526020016005820160009054906101000a900473ffffffffffffffffffffffffffffffffffffffff1673ffffffffffffffffffffffffffffffffffffffff1673ffffffffffffffffffffffffffffffffffffffff1681526020016006820160009054906101000a900473ffffffffffffffffffffffffffffffffffffffff1673ffffffffffffffffffffffffffffffffffffffff1673ffffffffffffffffffffffffffffffffffffffff168152602001600782015481525050905060016000848152602001908152602001600020600001548214156144f2576144f183613c4f565b5b600061450b82606001518461421a90919063ffffffff16565b9050600061452683600001518361495790919063ffffffff16565b905061453f848460000151613c0590919063ffffffff16565b6001600087815260200190815260200160002060000181905550614570818460600151613c0590919063ffffffff16565b60016000878152602001908152602001600020600301819055508260a0015173ffffffffffffffffffffffffffffffffffffffff166323b872dd338560c00151846040518463ffffffff1660e01b8152600401808473ffffffffffffffffffffffffffffffffffffffff1673ffffffffffffffffffffffffffffffffffffffff1681526020018373ffffffffffffffffffffffffffffffffffffffff1673ffffffffffffffffffffffffffffffffffffffff1681526020018281526020019350505050602060405180830381600087803b15801561464d57600080fd5b505af1158015614661573d6000803e3d6000fd5b505050506040513d602081101561467757600080fd5b81019080805190602001909291905050506146fa576040517f08c379a00000000000000000000000000000000000000000000000000000000081526004018080602001828103825260108152602001807f546f6b656e20427579204661696c65640000000000000000000000000000000081525060200191505060405180910390fd5b826040015173ffffffffffffffffffffffffffffffffffffffff1663a9059cbb33866040518363ffffffff1660e01b8152600401808373ffffffffffffffffffffffffffffffffffffffff1673ffffffffffffffffffffffffffffffffffffffff16815260200182815260200192505050602060405180830381600087803b15801561478557600080fd5b505af1158015614799573d6000803e3d6000fd5b505050506040513d60208110156147af57600080fd5b8101908080519060200190929190505050614832576040517f08c379a00000000000000000000000000000000000000000000000000000000081526004018080602001828103825260118152602001807f546f6b656e2053616c65204661696c656400000000000000000000000000000081525060200191505060405180910390fd5b6000600160008781526020019081526020016000206000015414156149365761485a856154fe565b8260c0015173ffffffffffffffffffffffffffffffffffffffff16857f78b83c9deb3ba7d7076cf9bca22d24b886556ae23c19e428987561468f045561856020015186608001518760000151886060015142604051808673ffffffffffffffffffffffffffffffffffffffff1673ffffffffffffffffffffffffffffffffffffffff1681526020018573ffffffffffffffffffffffffffffffffffffffff1673ffffffffffffffffffffffffffffffffffffffff1681526020018481526020018381526020018281526020019550505050505060405180910390a35b50505060008060146101000a81548160ff0219169083151502179055505050565b600061499983836040518060400160405280601a81526020017f536166654d6174683a206469766973696f6e206279207a65726f000000000000815250615650565b905092915050565b60008060149054906101000a900460ff16156149bc57600080fd5b6001600060146101000a81548160ff0219169083151502179055506000600660008773ffffffffffffffffffffffffffffffffffffffff1673ffffffffffffffffffffffffffffffffffffffff16815260200190815260200160002060009054906101000a900461ffff1690506000600660008673ffffffffffffffffffffffffffffffffffffffff1673ffffffffffffffffffffffffffffffffffffffff16815260200190815260200160002060009054906101000a900461ffff169050614a83615a72565b87816020019073ffffffffffffffffffffffffffffffffffffffff16908173ffffffffffffffffffffffffffffffffffffffff168152505085816080019073ffffffffffffffffffffffffffffffffffffffff16908173ffffffffffffffffffffffffffffffffffffffff16815250508681600001818152505084816060018181525050600360008461ffff1661ffff16815260200190815260200160002060020160029054906101000a900473ffffffffffffffffffffffffffffffffffffffff16816040019073ffffffffffffffffffffffffffffffffffffffff16908173ffffffffffffffffffffffffffffffffffffffff1681525050600360008361ffff1661ffff16815260200190815260200160002060020160029054906101000a900473ffffffffffffffffffffffffffffffffffffffff168160a0019073ffffffffffffffffffffffffffffffffffffffff16908173ffffffffffffffffffffffffffffffffffffffff1681525050338160c0019073ffffffffffffffffffffffffffffffffffffffff16908173ffffffffffffffffffffffffffffffffffffffff1681525050428160e001818152505060011515816040015173ffffffffffffffffffffffffffffffffffffffff166323b872dd33308b6040518463ffffffff1660e01b8152600401808473ffffffffffffffffffffffffffffffffffffffff1673ffffffffffffffffffffffffffffffffffffffff1681526020018373ffffffffffffffffffffffffffffffffffffffff1673ffffffffffffffffffffffffffffffffffffffff1681526020018281526020019350505050602060405180830381600087803b158015614cf857600080fd5b505af1158015614d0c573d6000803e3d6000fd5b505050506040513d6020811015614d2257600080fd5b8101908080519060200190929190505050151514614da8576040517f08c379a00000000000000000000000000000000000000000000000000000000081526004018080602001828103825260148152602001807f546f6b656e204465706f736974204661696c656400000000000000000000000081525060200191505060405180910390fd5b6000614db2615716565b905081600160008381526020019081526020016000206000820151816000015560208201518160010160006101000a81548173ffffffffffffffffffffffffffffffffffffffff021916908373ffffffffffffffffffffffffffffffffffffffff16021790555060408201518160020160006101000a81548173ffffffffffffffffffffffffffffffffffffffff021916908373ffffffffffffffffffffffffffffffffffffffff1602179055506060820151816003015560808201518160040160006101000a81548173ffffffffffffffffffffffffffffffffffffffff021916908373ffffffffffffffffffffffffffffffffffffffff16021790555060a08201518160050160006101000a81548173ffffffffffffffffffffffffffffffffffffffff021916908373ffffffffffffffffffffffffffffffffffffffff16021790555060c08201518160060160006101000a81548173ffffffffffffffffffffffffffffffffffffffff021916908373ffffffffffffffffffffffffffffffffffffffff16021790555060e082015181600701559050503373ffffffffffffffffffffffffffffffffffffffff16817f2609ca69db74762b7be2ed98465193d818295a30cf2296fe441a0693f60855208b8a8c8b8860e00151604051808673ffffffffffffffffffffffffffffffffffffffff1673ffffffffffffffffffffffffffffffffffffffff1681526020018573ffffffffffffffffffffffffffffffffffffffff1673ffffffffffffffffffffffffffffffffffffffff1681526020018481526020018381526020018281526020019550505050505060405180910390a38094505050505060008060146101000a81548160ff021916908315150217905550949350505050565b60008090506000806001600085815260200190815260200160002060040160009054906101000a900473ffffffffffffffffffffffffffffffffffffffff16905060006001600086815260200190815260200160002060010160009054906101000a900473ffffffffffffffffffffffffffffffffffffffff1690506150c585615732565b9250600083146151235760096000848152602001908152602001600020600101549350846009600085815260200190815260200160002060010181905550826009600087815260200190815260200160002060000181905550615224565b600a60008273ffffffffffffffffffffffffffffffffffffffff1673ffffffffffffffffffffffffffffffffffffffff16815260200190815260200160002060008373ffffffffffffffffffffffffffffffffffffffff1673ffffffffffffffffffffffffffffffffffffffff16815260200190815260200160002054935084600a60008373ffffffffffffffffffffffffffffffffffffffff1673ffffffffffffffffffffffffffffffffffffffff16815260200190815260200160002060008473ffffffffffffffffffffffffffffffffffffffff1673ffffffffffffffffffffffffffffffffffffffff168152602001908152602001600020819055505b60008414615263578460096000868152602001908152602001600020600001819055508360096000878152602001908152602001600020600101819055505b600b60008273ffffffffffffffffffffffffffffffffffffffff1673ffffffffffffffffffffffffffffffffffffffff16815260200190815260200160002060008373ffffffffffffffffffffffffffffffffffffffff1673ffffffffffffffffffffffffffffffffffffffff168152602001908152602001600020600081548092919060010191905055505050505050565b60008383111582906153a3576040517f08c379a00000000000000000000000000000000000000000000000000000000081526004018080602001828103825283818151815260200191508051906020019080838360005b8381101561536857808201518184015260208101905061534d565b50505050905090810190601f1680156153955780820380516001836020036101000a031916815260200191505b509250505060405180910390fd5b5060008385039050809150509392505050565b6000806001600084815260200190815260200160002060040160009054906101000a900473ffffffffffffffffffffffffffffffffffffffff16905060006001600085815260200190815260200160002060010160009054906101000a900473ffffffffffffffffffffffffffffffffffffffff169050600080600960008781526020019081526020016000206000015414158061546b57506000600960008781526020019081526020016000206001015414155b806154f1575084600a60008473ffffffffffffffffffffffffffffffffffffffff1673ffffffffffffffffffffffffffffffffffffffff16815260200190815260200160002060008573ffffffffffffffffffffffffffffffffffffffff1673ffffffffffffffffffffffffffffffffffffffff16815260200190815260200160002054145b9050809350505050919050565b6155078161199b565b61555c576040517f08c379a000000000000000000000000000000000000000000000000000000000815260040180806020018281038252602c815260200180615b4b602c913960400191505060405180910390fd5b600160008281526020019081526020016000206000808201600090556001820160006101000a81549073ffffffffffffffffffffffffffffffffffffffff02191690556002820160006101000a81549073ffffffffffffffffffffffffffffffffffffffff021916905560038201600090556004820160006101000a81549073ffffffffffffffffffffffffffffffffffffffff02191690556005820160006101000a81549073ffffffffffffffffffffffffffffffffffffffff02191690556006820160006101000a81549073ffffffffffffffffffffffffffffffffffffffff02191690556007820160009055505050565b600080831182906156fc576040517f08c379a00000000000000000000000000000000000000000000000000000000081526004018080602001828103825283818151815260200191508051906020019080838360005b838110156156c15780820151818401526020810190506156a6565b50505050905090810190601f1680156156ee5780820380516001836020036101000a031916815260200191505b509250505060405180910390fd5b50600083858161570857fe5b049050809150509392505050565b6000600260008154809291906001019190505550600254905090565b60008082116157a9576040517f08c379a00000000000000000000000000000000000000000000000000000000081526004018080602001828103825260118152602001807f49442063616e6e6f74206265207a65726f00000000000000000000000000000081525060200191505060405180910390fd5b6000600a60006001600086815260200190815260200160002060010160009054906101000a900473ffffffffffffffffffffffffffffffffffffffff1673ffffffffffffffffffffffffffffffffffffffff1673ffffffffffffffffffffffffffffffffffffffff16815260200190815260200160002060006001600086815260200190815260200160002060040160009054906101000a900473ffffffffffffffffffffffffffffffffffffffff1673ffffffffffffffffffffffffffffffffffffffff1673ffffffffffffffffffffffffffffffffffffffff16815260200190815260200160002054905060008090506000806158dd6001600086815260200190815260200160002060000154600160008981526020019081526020016000206003015461421a90919063ffffffff16565b905060006159206001600089815260200190815260200160002060000154600160008881526020019081526020016000206003015461421a90919063ffffffff16565b90508082101592505b600085141580156159375750825b156159e557849350600960008681526020019081526020016000206001015494506159976001600087815260200190815260200160002060000154600160008a81526020019081526020016000206003015461421a90919063ffffffff16565b91506159d86001600089815260200190815260200160002060000154600160008881526020019081526020016000206003015461421a90919063ffffffff16565b9050808210159250615929565b8395505050505050919050565b828054600181600116156101000203166002900490600052602060002090601f016020900481019282601f10615a3357805160ff1916838001178555615a61565b82800160010185558215615a61579182015b82811115615a60578251825591602001919060010190615a45565b5b509050615a6e9190615b25565b5090565b60405180610100016040528060008152602001600073ffffffffffffffffffffffffffffffffffffffff168152602001600073ffffffffffffffffffffffffffffffffffffffff16815260200160008152602001600073ffffffffffffffffffffffffffffffffffffffff168152602001600073ffffffffffffffffffffffffffffffffffffffff168152602001600073ffffffffffffffffffffffffffffffffffffffff168152602001600081525090565b615b4791905b80821115615b43576000816000905550600101615b2b565b5090565b9056fe5472616e73616374696f6e20494420697320496e616374697665206f7220646f6573206e6f742065786973744f776e61626c653a206e6577206f776e657220697320746865207a65726f20616464726573734e6f20746f6b656e2077697468207468697320636f6e74726163742061646472657373206578697374732e536166654d6174683a206d756c7469706c69636174696f6e206f766572666c6f77546f6b656e205061697220697320666f722074776f20646966666572656e7420746f6b656e73546f6b656e2077697468207468697320636f6e74726163742061646472657373206e6f7420666f756e642e4569746865722074686520494420697320696e616374697665206f72207468652073656e64657220697320756e617574686f72697a6564546865206164647265737320746f6b656e2062616c616e63652063616e6e6f7420676f2062656c6f77207a65726f2ea265627a7a72315820b099af1b61d4f8823795761ef9d4283704b571fd69f99d1d63b5f2db046becdb64736f6c63430005100032",
  "source": "// SPDX-License-Identifier: MIT\r\n\r\npragma solidity >=0.5.0 < 0.8.0;\r\n\r\nimport \"@openzeppelin/contracts/ownership/Ownable.sol\";\r\nimport \"@openzeppelin/contracts/math/SafeMath.sol\";\r\nimport \"@openzeppelin/contracts/token/ERC20/IERC20.sol\";\r\n\r\ncontract Dex is Ownable {\r\n\r\n    using SafeMath for uint;\r\n\r\n    bool rex;// re-entrance check\r\n\r\n    struct OfferData {\r\n        uint sellAmount;\r\n        address sellTokenAddress;\r\n        IERC20 sellToken;\r\n        uint buyAmount;\r\n        address buyTokenAddress;\r\n        IERC20 buyToken;\r\n        address who;\r\n        uint timeStamp;\r\n    }\r\n\r\n    mapping (uint => OfferData) public offerList;\r\n\r\n    uint public offerId;\r\n\r\n    struct Token {\r\n        string tokenName;\r\n        string tokenSymbol;\r\n        uint16 tokenIndex;\r\n        address tokenAddress;\r\n    }\r\n\r\n    struct TokenPair {\r\n        uint pairId;\r\n        uint16 token1;\r\n        uint16 token2;\r\n    }\r\n\r\n    struct ListInfo {\r\n        uint nextOffer;\r\n        uint prevOffer;\r\n        uint deleted;\r\n    }\r\n\r\n    mapping (uint16 => Token) tokens;\r\n    uint16 tokenIndex;\r\n    mapping (address => bool) tokenList;\r\n    mapping (address => uint16) tokenIndexList;\r\n\r\n    // Address Balances\r\n    mapping(address => mapping(uint16 => uint)) addressTokenBalance;\r\n\r\n    //Ranked List and Token Pairs\r\n    uint pairIndex;\r\n    mapping(uint => ListInfo) public listRank;// List Info for a given ID\r\n    mapping(address => mapping(address => uint)) public pairHighestOffer;\r\n    mapping(address => mapping(address => uint)) public pairNumOffers;\r\n    mapping(address => mapping(address => uint)) public pairID;\r\n    mapping(address => mapping(address => bool)) public pairList;\r\n\r\n    mapping(uint => TokenPair) tokenPairs;\r\n\r\n    //Events List\r\n\r\n    event TokenAdded(address _tokenAddress, string _tokenName, string _tokenSymbol, uint _timeStamp);\r\n    event TokenDeposited(address _from, address _tokenAddress, uint _amount, uint _timeStamp);\r\n    event TokenWithdrawn(address _to, address _tokenAddress, uint _amount, uint _timeStamp);\r\n\r\n    event OrderAddedToMarketEscrow(uint indexed _id,address indexed _from, address _sellTokenAddress, address _buyTokenAddress,\r\n     uint _sellAmount, uint _buyAmount, uint _timeStamp);\r\n    event OrderCancelled(uint indexed _id, address indexed _from, address _sellTokenAddress, address _buyTokenAddress,\r\n     uint _sellAmount, uint _buyAmount, uint _timeStamp );\r\n    event OrderFulFilled(uint indexed _id, address indexed _owner, address _sellTokenAddress, address _buyTokenAddress,\r\n     uint _sellAmount, uint _buyAmount, uint _timeStamp );\r\n\r\n    // re-entry Check\r\n\r\n    modifier reEntryCheck {\r\n        require(!rex);\r\n        rex = true;\r\n        _;\r\n        rex = false;\r\n    }\r\n\r\n    function addToken(address _tokenAddress, string memory _tokenName, string memory _tokenSymbol) public onlyOwner {\r\n        require(tokenList[_tokenAddress] == false, \"Token Already Exists\");\r\n\r\n        tokenList[_tokenAddress] = true;\r\n        tokenIndex++;\r\n        tokens[tokenIndex].tokenAddress = _tokenAddress;\r\n        tokens[tokenIndex].tokenName = _tokenName;\r\n        tokens[tokenIndex].tokenSymbol = _tokenSymbol;\r\n        tokens[tokenIndex].tokenIndex = tokenIndex;\r\n        tokenIndexList[_tokenAddress] = tokenIndex;\r\n        emit TokenAdded(_tokenAddress,_tokenName,_tokenSymbol,now);\r\n    }\r\n\r\n    function getTotalTokens() public view returns (uint16) {\r\n        return tokenIndex;\r\n    }\r\n\r\n    function depositToken(address _tokenAddress, uint _amount) public {\r\n        require(tokenList[_tokenAddress] == true,\"No token with this contract address exists.\");\r\n        uint16 tokenSymbolIndex = tokenIndexList[_tokenAddress];\r\n        require(tokens[tokenSymbolIndex].tokenAddress != address(0),\"Address 0\");\r\n\r\n        IERC20 thisToken = IERC20(tokens[tokenSymbolIndex].tokenAddress);\r\n\r\n        require(thisToken.transferFrom(msg.sender, address(this), _amount) == true,\"Token Deposit Failed\");\r\n        addressTokenBalance[msg.sender][tokenSymbolIndex] = addressTokenBalance[msg.sender][tokenSymbolIndex].add(_amount);\r\n        emit TokenDeposited(msg.sender,_tokenAddress,_amount,now);\r\n    }\r\n\r\n    function withdrawToken(address _tokenAddress, uint _amount) public {\r\n        require(tokenList[_tokenAddress] == true,\"No token with this contract address exists.\");\r\n        uint16 tokenSymbolIndex = tokenIndexList[_tokenAddress];\r\n        require(tokens[tokenSymbolIndex].tokenAddress != address(0),\"Address 0\");\r\n\r\n        IERC20 thisToken = IERC20(tokens[tokenSymbolIndex].tokenAddress);\r\n\r\n        uint tempVal = addressTokenBalance[msg.sender][tokenSymbolIndex].sub(_amount);\r\n        require(tempVal >= 0,\"The address token balance cannot go below zero.\");\r\n\r\n        addressTokenBalance[msg.sender][tokenSymbolIndex] = tempVal;\r\n        require(thisToken.transfer(msg.sender, _amount) == true,\"Token Withdrawal Failed\");\r\n        emit TokenWithdrawn(msg.sender,_tokenAddress,_amount,now);\r\n    }\r\n\r\n    function getTokenBalance(address _tokenAddress) public view returns (uint) {\r\n        require(tokenList[_tokenAddress] == true,\"No token with this contract address exists.\");\r\n        uint16 tokenSymbolIndex = tokenIndexList[_tokenAddress];\r\n\r\n        return addressTokenBalance[msg.sender][tokenSymbolIndex];\r\n    }\r\n\r\n    function getOfferId() internal returns(uint) {\r\n        offerId++;\r\n        return offerId;\r\n    }\r\n    //Limit Order Implementation\r\n    function tradeOffer(address _tokenAddress1, uint _quantity1, address _tokenAddress2, uint _quantity2) public returns(uint) {\r\n        require(pairList[_tokenAddress1][_tokenAddress2] == true,\"This Token Pair Does not exist\");\r\n        require(!rex,\"reentry not allowed\");\r\n        //RE-ENTRANCY CHECKS\r\n        uint16 tokenSymbolIndex1 = tokenIndexList[_tokenAddress1];\r\n        uint16 tokenSymbolIndex2 = tokenIndexList[_tokenAddress2];\r\n        require(tokens[tokenSymbolIndex1].tokenAddress != address(0),\"Address 0\");\r\n        require(tokens[tokenSymbolIndex2].tokenAddress != address(0),\"Address 0\");\r\n        require(_quantity1 > 0,\"Sell Amount should be > 0\");\r\n        require(_quantity2 > 0,\"Buy Amount should be > 0\");\r\n\r\n        uint id = matchEngine(_tokenAddress1, _quantity1, _tokenAddress2,_quantity2);\r\n\r\n        return id;\r\n    }\r\n\r\n    function createTokenPair(address _tokenAddress1, address _tokenAddress2) public {\r\n        require(tokenList[_tokenAddress1] == true,\"Token with this contract address not found.\");\r\n        require(tokenList[_tokenAddress2] == true,\"Token with this contract address not found.\");\r\n        require(!pairList[_tokenAddress1][_tokenAddress2],\"Token Pair already Exists\");\r\n        require(_tokenAddress1 != _tokenAddress2,\"Token Pair is for two different tokens\");\r\n\r\n        pairIndex++;\r\n        pairList[_tokenAddress1][_tokenAddress2] = true;\r\n        pairList[_tokenAddress2][_tokenAddress1] = true;\r\n\r\n        pairID[_tokenAddress1][_tokenAddress2] = pairIndex;\r\n        pairID[_tokenAddress2][_tokenAddress1] = pairIndex;\r\n\r\n        tokenPairs[pairIndex].pairId = pairIndex;\r\n        uint16 id1 = tokenIndexList[_tokenAddress1];\r\n        uint16 id2 = tokenIndexList[_tokenAddress2];\r\n\r\n        tokenPairs[pairIndex].token1 = id1;\r\n        tokenPairs[pairIndex].token2 = id2;\r\n\r\n    }\r\n\r\n    function getPairInfo(uint _id) public view returns (address,string memory,address,string memory) {\r\n        return (tokens[tokenPairs[_id].token1].tokenAddress,tokens[tokenPairs[_id].token1].tokenSymbol,\r\n        tokens[tokenPairs[_id].token2].tokenAddress,tokens[tokenPairs[_id].token2].tokenSymbol);\r\n    }\r\n\r\n    function getTotalPairs() public view returns (uint) {\r\n        return pairIndex;\r\n    }\r\n\r\n    function getOfferSize(address sellAddress, address buyAddress) public view returns (uint) {\r\n        return pairNumOffers[sellAddress][buyAddress];\r\n    }\r\n\r\n    function getOfferPerId(uint _id) public view returns (address,uint,address,uint) {\r\n        OfferData memory offer = offerList[_id];\r\n\r\n        return (offer.sellTokenAddress,offer.sellAmount,offer.buyTokenAddress,offer.buyAmount);\r\n    }\r\n\r\n    function getBestOffer(address sellAddress, address buyAddress) public view returns (uint) {\r\n        return pairHighestOffer[sellAddress][buyAddress];\r\n    }\r\n\r\n    function getNextOffer(uint id) public view returns(uint) {\r\n        return listRank[id].nextOffer;\r\n    }\r\n\r\n    function getPrevOffer(uint id) public view returns(uint) {\r\n        return listRank[id].prevOffer;\r\n    }\r\n\r\n    function isIDSorted(uint id) internal view returns (bool) {\r\n        address buyAddress = offerList[id].buyTokenAddress;\r\n        address sellAddress = offerList[id].sellTokenAddress;\r\n        bool isSorted = listRank[id].nextOffer != 0 || listRank[id].prevOffer != 0 ||\r\n         pairHighestOffer[sellAddress][buyAddress] == id;\r\n\r\n        return isSorted;\r\n    }\r\n\r\n    function sortList(uint id) internal {\r\n        uint prevId = 0;\r\n        uint x;\r\n        address buyAddress = offerList[id].buyTokenAddress;\r\n        address sellAddress = offerList[id].sellTokenAddress;\r\n\r\n        x = findNext(id);\r\n\r\n        if (x != 0) {\r\n            prevId = listRank[x].prevOffer;\r\n            listRank[x].prevOffer = id;\r\n            listRank[id].nextOffer = x;\r\n        } else {\r\n            prevId = pairHighestOffer[sellAddress][buyAddress];\r\n            pairHighestOffer[sellAddress][buyAddress] = id;\r\n        }\r\n\r\n        if (prevId != 0) {\r\n            listRank[prevId].nextOffer = id;\r\n            listRank[id].prevOffer = prevId;\r\n        }\r\n\r\n        pairNumOffers[sellAddress][buyAddress]++;\r\n    }\r\n\r\n    function unsortList(uint id) internal {\r\n        address buyAddress = offerList[id].buyTokenAddress;\r\n        address sellAddress = offerList[id].sellTokenAddress;\r\n\r\n        require(pairNumOffers[sellAddress][buyAddress] > 0);\r\n        require(listRank[id].deleted == 0 && isIDSorted(id),\"The ID is not in the sorted list\");\r\n\r\n        if (id != pairHighestOffer[sellAddress][buyAddress]) {\r\n            require(listRank[listRank[id].nextOffer].prevOffer == id);\r\n            listRank[listRank[id].nextOffer].prevOffer = listRank[id].prevOffer;\r\n        } else {\r\n            pairHighestOffer[sellAddress][buyAddress] = listRank[id].prevOffer;\r\n        }\r\n\r\n        if (listRank[id].prevOffer != 0) {\r\n            require(listRank[listRank[id].prevOffer].nextOffer == id);\r\n            listRank[listRank[id].prevOffer].nextOffer = listRank[id].nextOffer;\r\n        }\r\n\r\n        pairNumOffers[sellAddress][buyAddress]--;\r\n        listRank[id].deleted = 1;\r\n    }\r\n\r\n    function findNext(uint id) internal view returns(uint) {\r\n        require(id > 0,\"ID cannot be zero\");\r\n\r\n        uint highest = pairHighestOffer[offerList[id].sellTokenAddress][offerList[id].buyTokenAddress];\r\n        uint prevHighest = 0;\r\n\r\n        bool conditionCheck;\r\n\r\n        uint m1 = offerList[id].buyAmount.mul(offerList[highest].sellAmount);\r\n        uint m2 = offerList[highest].buyAmount.mul(offerList[id].sellAmount);\r\n\r\n        conditionCheck = (m1 >= m2);\r\n\r\n        while (highest != 0 && conditionCheck) {\r\n            prevHighest = highest;\r\n            highest = listRank[highest].prevOffer;\r\n\r\n            m1 = offerList[id].buyAmount.mul(offerList[highest].sellAmount);\r\n            m2 = offerList[highest].buyAmount.mul(offerList[id].sellAmount);\r\n\r\n            conditionCheck = (m1 >= m2);\r\n        }\r\n\r\n        return prevHighest;\r\n\r\n    }\r\n\r\n    function createOffer(address _tokenAddress1, uint _quantity1, address _tokenAddress2, uint _quantity2) internal reEntryCheck returns (uint) {\r\n        uint16 tokenSymbolIndex1 = tokenIndexList[_tokenAddress1];\r\n        uint16 tokenSymbolIndex2 = tokenIndexList[_tokenAddress2];\r\n        OfferData memory offer;\r\n\r\n        offer.sellTokenAddress = _tokenAddress1;\r\n        offer.buyTokenAddress = _tokenAddress2;\r\n        offer.sellAmount = _quantity1;\r\n        offer.buyAmount = _quantity2;\r\n        offer.sellToken = IERC20(tokens[tokenSymbolIndex1].tokenAddress);\r\n        offer.buyToken = IERC20(tokens[tokenSymbolIndex2].tokenAddress);\r\n        offer.who = msg.sender;\r\n        offer.timeStamp = now;\r\n\r\n        require(offer.sellToken.transferFrom(msg.sender, address(this), _quantity1) == true,\"Token Deposit Failed\");\r\n        uint id = getOfferId();\r\n\r\n        offerList[id] = offer;\r\n\r\n        emit OrderAddedToMarketEscrow(id, msg.sender, _tokenAddress1, _tokenAddress2, _quantity1, _quantity2, offer.timeStamp);\r\n\r\n        return id;\r\n    }\r\n\r\n    function isActive(uint _id) public view returns (bool) {\r\n        bool ret = offerList[_id].timeStamp > 0;\r\n        return ret;\r\n    }\r\n\r\n    function deleteOffer(uint _id) internal {\r\n        require(isActive(_id),\"Transaction ID is Inactive or does not exist\");\r\n        delete offerList[_id];\r\n    }\r\n\r\n    function cancelOffer(uint _id) public returns (bool) {\r\n        require(isActive(_id) && (offerList[_id].who == msg.sender),\"Either the ID is inactive or the sender is unauthorized\");\r\n        unsortList(_id);\r\n        OfferData memory offer = offerList[_id];\r\n        delete offerList[_id];\r\n\r\n        require(offer.sellToken.transfer(offer.who,offer.sellAmount));\r\n        emit OrderCancelled(_id,offer.who,offer.sellTokenAddress,offer.buyTokenAddress,offer.sellAmount,offer.buyAmount,now);\r\n        return true;\r\n    }\r\n\r\n    function buy(uint id, uint quantity) internal reEntryCheck {\r\n        OfferData memory temp = offerList[id];\r\n\r\n        if (quantity == offerList[id].sellAmount) {\r\n            unsortList(id);\r\n        }\r\n\r\n        uint m1 = quantity.mul(temp.buyAmount);\r\n        uint d1 = m1.div(temp.sellAmount);\r\n\r\n\r\n        offerList[id].sellAmount = temp.sellAmount.sub(quantity);\r\n        offerList[id].buyAmount = temp.buyAmount.sub(d1);\r\n        require(temp.buyToken.transferFrom(msg.sender,temp.who,d1),\"Token Buy Failed\");\r\n        require(temp.sellToken.transfer(msg.sender,quantity),\"Token Sale Failed\");\r\n\r\n        if (offerList[id].sellAmount == 0) {\r\n            deleteOffer(id);\r\n            emit OrderFulFilled(id,temp.who,temp.sellTokenAddress,temp.buyTokenAddress,temp.sellAmount,temp.buyAmount,now);\r\n        }\r\n    }\r\n\r\n    function matchEngine(address sellTokenAddress,uint tSellQuantity,address buyTokenAddress, uint tBuyQuantity) internal returns (uint) {\r\n        uint mHighestId;\r\n        uint tBuyQuantityPrev;\r\n        uint mSellQuantity;\r\n        uint mBuyQuantity;\r\n        uint m1;\r\n        uint m2;\r\n        uint quantity;\r\n        uint newId;\r\n\r\n        while (pairHighestOffer[buyTokenAddress][sellTokenAddress] > 0) {\r\n            mHighestId = pairHighestOffer[buyTokenAddress][sellTokenAddress];\r\n            mBuyQuantity = offerList[mHighestId].buyAmount;\r\n            mSellQuantity = offerList[mHighestId].sellAmount;\r\n\r\n            m1 = tBuyQuantity.mul(mBuyQuantity);\r\n            m2 = tSellQuantity.mul(mSellQuantity);\r\n\r\n            if (m1 > m2) {\r\n                break;\r\n            }\r\n\r\n            if (mSellQuantity < tBuyQuantity) {\r\n                quantity = mSellQuantity;\r\n            } else {\r\n                quantity = tBuyQuantity;\r\n            }\r\n\r\n            buy(mHighestId,quantity);\r\n            tBuyQuantityPrev = tBuyQuantity;\r\n\r\n            if (mSellQuantity < tBuyQuantity) {\r\n                quantity = mSellQuantity;\r\n            } else {\r\n                quantity = tBuyQuantity;\r\n            }\r\n\r\n            tBuyQuantity = tBuyQuantity.sub(quantity);\r\n\r\n            m1 = tBuyQuantity.mul(tSellQuantity);\r\n\r\n            tSellQuantity = m1.div(tBuyQuantityPrev);\r\n\r\n            if (tSellQuantity == 0 || tBuyQuantity == 0) {\r\n                break;\r\n            }\r\n        }\r\n\r\n        if (tBuyQuantity > 0 && tSellQuantity > 0) {\r\n            newId = createOffer(sellTokenAddress,tSellQuantity,buyTokenAddress,tBuyQuantity);\r\n            sortList(newId);\r\n        }\r\n\r\n        return newId;\r\n    }\r\n\r\n}",
  "sourcePath": "E:/Binance/dexmatch/truffle/contracts/DEX.sol",
  "compiler": {
    "name": "solc",
    "version": "0.5.16+commit.9c3226ce.Emscripten.clang"
  },
  "schemaVersion": "3.3.2",
  "updatedAt": "2021-01-27T11:36:09.692Z",
  "networkType": "ethereum",
  "devdoc": {
    "methods": {
      "isOwner()": {
        "details": "Returns true if the caller is the current owner."
      },
      "owner()": {
        "details": "Returns the address of the current owner."
      },
      "renounceOwnership()": {
        "details": "Leaves the contract without owner. It will not be possible to call `onlyOwner` functions anymore. Can only be called by the current owner.     * NOTE: Renouncing ownership will leave the contract without an owner, thereby removing any functionality that is only available to the owner."
      },
      "transferOwnership(address)": {
        "details": "Transfers ownership of the contract to a new account (`newOwner`). Can only be called by the current owner."
      }
    }
  },
  "userdoc": {
    "methods": {}
  }
}