{
  "contractName": "Dex",
  "abi": [
    {
      "anonymous": false,
      "inputs": [
        {
          "indexed": true,
          "internalType": "uint256",
          "name": "_id",
          "type": "uint256"
        },
        {
          "indexed": true,
          "internalType": "address",
          "name": "_from",
          "type": "address"
        },
        {
          "indexed": false,
          "internalType": "string",
          "name": "_sellTokenSymbol",
          "type": "string"
        },
        {
          "indexed": false,
          "internalType": "string",
          "name": "_buyTokenSymbol",
          "type": "string"
        },
        {
          "indexed": false,
          "internalType": "uint256",
          "name": "_sellAmount",
          "type": "uint256"
        },
        {
          "indexed": false,
          "internalType": "uint256",
          "name": "_buyAmount",
          "type": "uint256"
        },
        {
          "indexed": false,
          "internalType": "uint256",
          "name": "_timeStamp",
          "type": "uint256"
        }
      ],
      "name": "OrderAddedToMarketEscrow",
      "type": "event"
    },
    {
      "anonymous": false,
      "inputs": [
        {
          "indexed": true,
          "internalType": "uint256",
          "name": "_id",
          "type": "uint256"
        },
        {
          "indexed": true,
          "internalType": "address",
          "name": "_from",
          "type": "address"
        },
        {
          "indexed": false,
          "internalType": "string",
          "name": "_sellTokenSymbol",
          "type": "string"
        },
        {
          "indexed": false,
          "internalType": "string",
          "name": "_buyTokenSymbol",
          "type": "string"
        },
        {
          "indexed": false,
          "internalType": "uint256",
          "name": "_sellAmount",
          "type": "uint256"
        },
        {
          "indexed": false,
          "internalType": "uint256",
          "name": "_buyAmount",
          "type": "uint256"
        },
        {
          "indexed": false,
          "internalType": "uint256",
          "name": "_timeStamp",
          "type": "uint256"
        }
      ],
      "name": "OrderCancelled",
      "type": "event"
    },
    {
      "anonymous": false,
      "inputs": [
        {
          "indexed": true,
          "internalType": "uint256",
          "name": "_id",
          "type": "uint256"
        },
        {
          "indexed": true,
          "internalType": "address",
          "name": "_owner",
          "type": "address"
        },
        {
          "indexed": false,
          "internalType": "string",
          "name": "_sellTokenSymbol",
          "type": "string"
        },
        {
          "indexed": false,
          "internalType": "string",
          "name": "_buyTokenSymbol",
          "type": "string"
        },
        {
          "indexed": false,
          "internalType": "uint256",
          "name": "_sellAmount",
          "type": "uint256"
        },
        {
          "indexed": false,
          "internalType": "uint256",
          "name": "_buyAmount",
          "type": "uint256"
        },
        {
          "indexed": false,
          "internalType": "uint256",
          "name": "_timeStamp",
          "type": "uint256"
        }
      ],
      "name": "OrderFulFilled",
      "type": "event"
    },
    {
      "anonymous": false,
      "inputs": [
        {
          "indexed": true,
          "internalType": "address",
          "name": "previousOwner",
          "type": "address"
        },
        {
          "indexed": true,
          "internalType": "address",
          "name": "newOwner",
          "type": "address"
        }
      ],
      "name": "OwnershipTransferred",
      "type": "event"
    },
    {
      "anonymous": false,
      "inputs": [
        {
          "indexed": false,
          "internalType": "address",
          "name": "_tokenAddress",
          "type": "address"
        },
        {
          "indexed": false,
          "internalType": "string",
          "name": "_tokenName",
          "type": "string"
        },
        {
          "indexed": false,
          "internalType": "string",
          "name": "_tokenSymbol",
          "type": "string"
        },
        {
          "indexed": false,
          "internalType": "uint256",
          "name": "_timeStamp",
          "type": "uint256"
        }
      ],
      "name": "TokenAdded",
      "type": "event"
    },
    {
      "constant": true,
      "inputs": [],
      "name": "isOwner",
      "outputs": [
        {
          "internalType": "bool",
          "name": "",
          "type": "bool"
        }
      ],
      "payable": false,
      "stateMutability": "view",
      "type": "function"
    },
    {
      "constant": true,
      "inputs": [
        {
          "internalType": "uint256",
          "name": "",
          "type": "uint256"
        }
      ],
      "name": "listRank",
      "outputs": [
        {
          "internalType": "uint256",
          "name": "nextOffer",
          "type": "uint256"
        },
        {
          "internalType": "uint256",
          "name": "prevOffer",
          "type": "uint256"
        },
        {
          "internalType": "uint256",
          "name": "deleted",
          "type": "uint256"
        }
      ],
      "payable": false,
      "stateMutability": "view",
      "type": "function"
    },
    {
      "constant": true,
      "inputs": [],
      "name": "offerId",
      "outputs": [
        {
          "internalType": "uint256",
          "name": "",
          "type": "uint256"
        }
      ],
      "payable": false,
      "stateMutability": "view",
      "type": "function"
    },
    {
      "constant": true,
      "inputs": [
        {
          "internalType": "uint256",
          "name": "",
          "type": "uint256"
        }
      ],
      "name": "offerList",
      "outputs": [
        {
          "internalType": "uint256",
          "name": "sellAmount",
          "type": "uint256"
        },
        {
          "internalType": "address",
          "name": "sellTokenAddress",
          "type": "address"
        },
        {
          "internalType": "string",
          "name": "sellTokenSymbol",
          "type": "string"
        },
        {
          "internalType": "contract IERC20",
          "name": "sellToken",
          "type": "address"
        },
        {
          "internalType": "uint256",
          "name": "buyAmount",
          "type": "uint256"
        },
        {
          "internalType": "string",
          "name": "buyTokenSymbol",
          "type": "string"
        },
        {
          "internalType": "address",
          "name": "buyTokenAddress",
          "type": "address"
        },
        {
          "internalType": "contract IERC20",
          "name": "buyToken",
          "type": "address"
        },
        {
          "internalType": "address",
          "name": "who",
          "type": "address"
        },
        {
          "internalType": "uint256",
          "name": "timeStamp",
          "type": "uint256"
        }
      ],
      "payable": false,
      "stateMutability": "view",
      "type": "function"
    },
    {
      "constant": true,
      "inputs": [],
      "name": "owner",
      "outputs": [
        {
          "internalType": "address",
          "name": "",
          "type": "address"
        }
      ],
      "payable": false,
      "stateMutability": "view",
      "type": "function"
    },
    {
      "constant": true,
      "inputs": [
        {
          "internalType": "address",
          "name": "",
          "type": "address"
        },
        {
          "internalType": "address",
          "name": "",
          "type": "address"
        }
      ],
      "name": "pairHighestOffer",
      "outputs": [
        {
          "internalType": "uint256",
          "name": "",
          "type": "uint256"
        }
      ],
      "payable": false,
      "stateMutability": "view",
      "type": "function"
    },
    {
      "constant": true,
      "inputs": [
        {
          "internalType": "address",
          "name": "",
          "type": "address"
        },
        {
          "internalType": "address",
          "name": "",
          "type": "address"
        }
      ],
      "name": "pairID",
      "outputs": [
        {
          "internalType": "uint256",
          "name": "",
          "type": "uint256"
        }
      ],
      "payable": false,
      "stateMutability": "view",
      "type": "function"
    },
    {
      "constant": true,
      "inputs": [
        {
          "internalType": "address",
          "name": "",
          "type": "address"
        },
        {
          "internalType": "address",
          "name": "",
          "type": "address"
        }
      ],
      "name": "pairList",
      "outputs": [
        {
          "internalType": "bool",
          "name": "",
          "type": "bool"
        }
      ],
      "payable": false,
      "stateMutability": "view",
      "type": "function"
    },
    {
      "constant": true,
      "inputs": [
        {
          "internalType": "address",
          "name": "",
          "type": "address"
        },
        {
          "internalType": "address",
          "name": "",
          "type": "address"
        }
      ],
      "name": "pairNumOffers",
      "outputs": [
        {
          "internalType": "uint256",
          "name": "",
          "type": "uint256"
        }
      ],
      "payable": false,
      "stateMutability": "view",
      "type": "function"
    },
    {
      "constant": false,
      "inputs": [],
      "name": "renounceOwnership",
      "outputs": [],
      "payable": false,
      "stateMutability": "nonpayable",
      "type": "function"
    },
    {
      "constant": false,
      "inputs": [
        {
          "internalType": "address",
          "name": "newOwner",
          "type": "address"
        }
      ],
      "name": "transferOwnership",
      "outputs": [],
      "payable": false,
      "stateMutability": "nonpayable",
      "type": "function"
    },
    {
      "constant": false,
      "inputs": [
        {
          "internalType": "address",
          "name": "_tokenAddress",
          "type": "address"
        },
        {
          "internalType": "string",
          "name": "_tokenName",
          "type": "string"
        },
        {
          "internalType": "string",
          "name": "_tokenSymbol",
          "type": "string"
        }
      ],
      "name": "addToken",
      "outputs": [],
      "payable": false,
      "stateMutability": "nonpayable",
      "type": "function"
    },
    {
      "constant": true,
      "inputs": [],
      "name": "getTotalTokens",
      "outputs": [
        {
          "internalType": "uint16",
          "name": "",
          "type": "uint16"
        }
      ],
      "payable": false,
      "stateMutability": "view",
      "type": "function"
    },
    {
      "constant": true,
      "inputs": [
        {
          "internalType": "address",
          "name": "_tokenAddress",
          "type": "address"
        }
      ],
      "name": "getTokenBalance",
      "outputs": [
        {
          "internalType": "uint256",
          "name": "",
          "type": "uint256"
        }
      ],
      "payable": false,
      "stateMutability": "view",
      "type": "function"
    },
    {
      "constant": false,
      "inputs": [
        {
          "internalType": "address",
          "name": "_tokenAddress1",
          "type": "address"
        },
        {
          "internalType": "uint256",
          "name": "_quantity1",
          "type": "uint256"
        },
        {
          "internalType": "address",
          "name": "_tokenAddress2",
          "type": "address"
        },
        {
          "internalType": "uint256",
          "name": "_quantity2",
          "type": "uint256"
        }
      ],
      "name": "tradeOffer",
      "outputs": [
        {
          "internalType": "uint256",
          "name": "",
          "type": "uint256"
        }
      ],
      "payable": false,
      "stateMutability": "nonpayable",
      "type": "function"
    },
    {
      "constant": false,
      "inputs": [
        {
          "internalType": "address",
          "name": "_tokenAddress1",
          "type": "address"
        },
        {
          "internalType": "address",
          "name": "_tokenAddress2",
          "type": "address"
        }
      ],
      "name": "createTokenPair",
      "outputs": [],
      "payable": false,
      "stateMutability": "nonpayable",
      "type": "function"
    },
    {
      "constant": true,
      "inputs": [
        {
          "internalType": "uint256",
          "name": "_id",
          "type": "uint256"
        }
      ],
      "name": "getPairInfo",
      "outputs": [
        {
          "internalType": "address",
          "name": "",
          "type": "address"
        },
        {
          "internalType": "string",
          "name": "",
          "type": "string"
        },
        {
          "internalType": "address",
          "name": "",
          "type": "address"
        },
        {
          "internalType": "string",
          "name": "",
          "type": "string"
        }
      ],
      "payable": false,
      "stateMutability": "view",
      "type": "function"
    },
    {
      "constant": true,
      "inputs": [],
      "name": "getTotalPairs",
      "outputs": [
        {
          "internalType": "uint256",
          "name": "",
          "type": "uint256"
        }
      ],
      "payable": false,
      "stateMutability": "view",
      "type": "function"
    },
    {
      "constant": true,
      "inputs": [
        {
          "internalType": "address",
          "name": "sellAddress",
          "type": "address"
        },
        {
          "internalType": "address",
          "name": "buyAddress",
          "type": "address"
        }
      ],
      "name": "getOfferSize",
      "outputs": [
        {
          "internalType": "uint256",
          "name": "",
          "type": "uint256"
        }
      ],
      "payable": false,
      "stateMutability": "view",
      "type": "function"
    },
    {
      "constant": true,
      "inputs": [
        {
          "internalType": "uint256",
          "name": "_id",
          "type": "uint256"
        }
      ],
      "name": "getOfferPerId",
      "outputs": [
        {
          "internalType": "address",
          "name": "",
          "type": "address"
        },
        {
          "internalType": "uint256",
          "name": "",
          "type": "uint256"
        },
        {
          "internalType": "address",
          "name": "",
          "type": "address"
        },
        {
          "internalType": "uint256",
          "name": "",
          "type": "uint256"
        }
      ],
      "payable": false,
      "stateMutability": "view",
      "type": "function"
    },
    {
      "constant": true,
      "inputs": [
        {
          "internalType": "address",
          "name": "sellAddress",
          "type": "address"
        },
        {
          "internalType": "address",
          "name": "buyAddress",
          "type": "address"
        }
      ],
      "name": "getBestOffer",
      "outputs": [
        {
          "internalType": "uint256",
          "name": "",
          "type": "uint256"
        }
      ],
      "payable": false,
      "stateMutability": "view",
      "type": "function"
    },
    {
      "constant": true,
      "inputs": [
        {
          "internalType": "uint256",
          "name": "id",
          "type": "uint256"
        }
      ],
      "name": "getNextOffer",
      "outputs": [
        {
          "internalType": "uint256",
          "name": "",
          "type": "uint256"
        }
      ],
      "payable": false,
      "stateMutability": "view",
      "type": "function"
    },
    {
      "constant": true,
      "inputs": [
        {
          "internalType": "uint256",
          "name": "id",
          "type": "uint256"
        }
      ],
      "name": "getPrevOffer",
      "outputs": [
        {
          "internalType": "uint256",
          "name": "",
          "type": "uint256"
        }
      ],
      "payable": false,
      "stateMutability": "view",
      "type": "function"
    },
    {
      "constant": true,
      "inputs": [
        {
          "internalType": "uint256",
          "name": "_id",
          "type": "uint256"
        }
      ],
      "name": "isActive",
      "outputs": [
        {
          "internalType": "bool",
          "name": "",
          "type": "bool"
        }
      ],
      "payable": false,
      "stateMutability": "view",
      "type": "function"
    },
    {
      "constant": false,
      "inputs": [
        {
          "internalType": "uint256",
          "name": "_id",
          "type": "uint256"
        }
      ],
      "name": "cancelOffer",
      "outputs": [
        {
          "internalType": "bool",
          "name": "",
          "type": "bool"
        }
      ],
      "payable": false,
      "stateMutability": "nonpayable",
      "type": "function"
    }
  ],
  "bytecode": "0x6080604052600062000016620000ba60201b60201c565b9050806000806101000a81548173ffffffffffffffffffffffffffffffffffffffff021916908373ffffffffffffffffffffffffffffffffffffffff1602179055508073ffffffffffffffffffffffffffffffffffffffff16600073ffffffffffffffffffffffffffffffffffffffff167f8be0079c531659141344cd1fd0a4f28419497f9722a3daafe3b4186f6b6457e060405160405180910390a350620000c2565b600033905090565b615b3080620000d26000396000f3fe608060405234801561001057600080fd5b50600436106101735760003560e01c80638da5cb5b116100de578063bc1bb98f11610097578063e9cd9eec11610071578063e9cd9eec14610c72578063ef706adf14610d21578063f08b82e614610d67578063f2fde38b14610d8d57610173565b8063bc1bb98f14610a6a578063d4397c6814610a88578063e73c201914610b0057610173565b80638da5cb5b1461067f5780638f32d59b146106c95780639a30c600146106eb5780639d9e874e1461073b578063b2987b18146107c7578063b8bd751c146109ee57610173565b806370bb79dc1161013057806370bb79dc14610499578063715018a614610511578063741be3d91461051b578063765509081461055d57806382afd23b146105d5578063882674d31461061b57610173565b80630374fc6f14610178578063078ee141146101f05780630fe222771461023257806321ce9f91146102aa5780633aecd0e3146102c85780634aac77e414610320575b600080fd5b6101da6004803603604081101561018e57600080fd5b81019080803573ffffffffffffffffffffffffffffffffffffffff169060200190929190803573ffffffffffffffffffffffffffffffffffffffff169060200190929190505050610dd1565b6040518082815260200191505060405180910390f35b61021c6004803603602081101561020657600080fd5b8101908080359060200190929190505050610e58565b6040518082815260200191505060405180910390f35b6102946004803603604081101561024857600080fd5b81019080803573ffffffffffffffffffffffffffffffffffffffff169060200190929190803573ffffffffffffffffffffffffffffffffffffffff169060200190929190505050610e78565b6040518082815260200191505060405180910390f35b6102b2610e9d565b6040518082815260200191505060405180910390f35b61030a600480360360208110156102de57600080fd5b81019080803573ffffffffffffffffffffffffffffffffffffffff169060200190929190505050610ea3565b6040518082815260200191505060405180910390f35b61034c6004803603602081101561033657600080fd5b8101908080359060200190929190505050611001565b604051808573ffffffffffffffffffffffffffffffffffffffff1673ffffffffffffffffffffffffffffffffffffffff168152602001806020018473ffffffffffffffffffffffffffffffffffffffff1673ffffffffffffffffffffffffffffffffffffffff16815260200180602001838103835286818151815260200191508051906020019080838360005b838110156103f45780820151818401526020810190506103d9565b50505050905090810190601f1680156104215780820380516001836020036101000a031916815260200191505b50838103825284818151815260200191508051906020019080838360005b8381101561045a57808201518184015260208101905061043f565b50505050905090810190601f1680156104875780820380516001836020036101000a031916815260200191505b50965050505050505060405180910390f35b6104fb600480360360408110156104af57600080fd5b81019080803573ffffffffffffffffffffffffffffffffffffffff169060200190929190803573ffffffffffffffffffffffffffffffffffffffff16906020019092919050505061129a565b6040518082815260200191505060405180910390f35b6105196112bf565b005b6105476004803603602081101561053157600080fd5b81019080803590602001909291905050506113f8565b6040518082815260200191505060405180910390f35b6105bf6004803603604081101561057357600080fd5b81019080803573ffffffffffffffffffffffffffffffffffffffff169060200190929190803573ffffffffffffffffffffffffffffffffffffffff169060200190929190505050611418565b6040518082815260200191505060405180910390f35b610601600480360360208110156105eb57600080fd5b810190808035906020019092919050505061149f565b604051808215151515815260200191505060405180910390f35b61067d6004803603604081101561063157600080fd5b81019080803573ffffffffffffffffffffffffffffffffffffffff169060200190929190803573ffffffffffffffffffffffffffffffffffffffff1690602001909291905050506114c7565b005b610687611b0c565b604051808273ffffffffffffffffffffffffffffffffffffffff1673ffffffffffffffffffffffffffffffffffffffff16815260200191505060405180910390f35b6106d1611b35565b604051808215151515815260200191505060405180910390f35b6107176004803603602081101561070157600080fd5b8101908080359060200190929190505050611b93565b60405180848152602001838152602001828152602001935050505060405180910390f35b6107b16004803603608081101561075157600080fd5b81019080803573ffffffffffffffffffffffffffffffffffffffff16906020019092919080359060200190929190803573ffffffffffffffffffffffffffffffffffffffff16906020019092919080359060200190929190505050611bbd565b6040518082815260200191505060405180910390f35b6107f3600480360360208110156107dd57600080fd5b81019080803590602001909291905050506120b5565b604051808b81526020018a73ffffffffffffffffffffffffffffffffffffffff1673ffffffffffffffffffffffffffffffffffffffff168152602001806020018973ffffffffffffffffffffffffffffffffffffffff1673ffffffffffffffffffffffffffffffffffffffff168152602001888152602001806020018773ffffffffffffffffffffffffffffffffffffffff1673ffffffffffffffffffffffffffffffffffffffff1681526020018673ffffffffffffffffffffffffffffffffffffffff1673ffffffffffffffffffffffffffffffffffffffff1681526020018573ffffffffffffffffffffffffffffffffffffffff1673ffffffffffffffffffffffffffffffffffffffff16815260200184815260200183810383528b818151815260200191508051906020019080838360005b83811015610943578082015181840152602081019050610928565b50505050905090810190601f1680156109705780820380516001836020036101000a031916815260200191505b50838103825288818151815260200191508051906020019080838360005b838110156109a957808201518184015260208101905061098e565b50505050905090810190601f1680156109d65780820380516001836020036101000a031916815260200191505b509c5050505050505050505050505060405180910390f35b610a5060048036036040811015610a0457600080fd5b81019080803573ffffffffffffffffffffffffffffffffffffffff169060200190929190803573ffffffffffffffffffffffffffffffffffffffff1690602001909291905050506122d9565b604051808215151515815260200191505060405180910390f35b610a72612308565b6040518082815260200191505060405180910390f35b610aea60048036036040811015610a9e57600080fd5b81019080803573ffffffffffffffffffffffffffffffffffffffff169060200190929190803573ffffffffffffffffffffffffffffffffffffffff169060200190929190505050612312565b6040518082815260200191505060405180910390f35b610c7060048036036060811015610b1657600080fd5b81019080803573ffffffffffffffffffffffffffffffffffffffff16906020019092919080359060200190640100000000811115610b5357600080fd5b820183602082011115610b6557600080fd5b80359060200191846001830284011164010000000083111715610b8757600080fd5b91908080601f016020809104026020016040519081016040528093929190818152602001838380828437600081840152601f19601f82011690508083019250505050505050919291929080359060200190640100000000811115610bea57600080fd5b820183602082011115610bfc57600080fd5b80359060200191846001830284011164010000000083111715610c1e57600080fd5b91908080601f016020809104026020016040519081016040528093929190818152602001838380828437600081840152601f19601f820116905080830192505050505050509192919290505050612337565b005b610c9e60048036036020811015610c8857600080fd5b8101908080359060200190929190505050612804565b604051808573ffffffffffffffffffffffffffffffffffffffff1673ffffffffffffffffffffffffffffffffffffffff1681526020018481526020018373ffffffffffffffffffffffffffffffffffffffff1673ffffffffffffffffffffffffffffffffffffffff16815260200182815260200194505050505060405180910390f35b610d4d60048036036020811015610d3757600080fd5b8101908080359060200190929190505050612b67565b604051808215151515815260200191505060405180910390f35b610d6f6132b7565b604051808261ffff1661ffff16815260200191505060405180910390f35b610dcf60048036036020811015610da357600080fd5b81019080803573ffffffffffffffffffffffffffffffffffffffff1690602001909291905050506132cf565b005b6000600a60008473ffffffffffffffffffffffffffffffffffffffff1673ffffffffffffffffffffffffffffffffffffffff16815260200190815260200160002060008373ffffffffffffffffffffffffffffffffffffffff1673ffffffffffffffffffffffffffffffffffffffff16815260200190815260200160002054905092915050565b600060096000838152602001908152602001600020600001549050919050565b600c602052816000526040600020602052806000526040600020600091509150505481565b60025481565b600060011515600560008473ffffffffffffffffffffffffffffffffffffffff1673ffffffffffffffffffffffffffffffffffffffff16815260200190815260200160002060009054906101000a900460ff16151514610f4e576040517f08c379a000000000000000000000000000000000000000000000000000000000815260040180806020018281038252602b815260200180615a28602b913960400191505060405180910390fd5b6000600660008473ffffffffffffffffffffffffffffffffffffffff1673ffffffffffffffffffffffffffffffffffffffff16815260200190815260200160002060009054906101000a900461ffff169050600760003373ffffffffffffffffffffffffffffffffffffffff1673ffffffffffffffffffffffffffffffffffffffff16815260200190815260200160002060008261ffff1661ffff16815260200190815260200160002054915050919050565b600060606000606060036000600e600088815260200190815260200160002060010160009054906101000a900461ffff1661ffff1661ffff16815260200190815260200160002060020160029054906101000a900473ffffffffffffffffffffffffffffffffffffffff1660036000600e600089815260200190815260200160002060010160009054906101000a900461ffff1661ffff1661ffff16815260200190815260200160002060010160036000600e60008a815260200190815260200160002060010160029054906101000a900461ffff1661ffff1661ffff16815260200190815260200160002060020160029054906101000a900473ffffffffffffffffffffffffffffffffffffffff1660036000600e60008b815260200190815260200160002060010160029054906101000a900461ffff1661ffff1661ffff168152602001908152602001600020600101828054600181600116156101000203166002900480601f0160208091040260200160405190810160405280929190818152602001828054600181600116156101000203166002900480156111e85780601f106111bd576101008083540402835291602001916111e8565b820191906000526020600020905b8154815290600101906020018083116111cb57829003601f168201915b50505050509250808054600181600116156101000203166002900480601f0160208091040260200160405190810160405280929190818152602001828054600181600116156101000203166002900480156112845780601f1061125957610100808354040283529160200191611284565b820191906000526020600020905b81548152906001019060200180831161126757829003601f168201915b5050505050905093509350935093509193509193565b600b602052816000526040600020602052806000526040600020600091509150505481565b6112c7611b35565b611339576040517f08c379a00000000000000000000000000000000000000000000000000000000081526004018080602001828103825260208152602001807f4f776e61626c653a2063616c6c6572206973206e6f7420746865206f776e657281525060200191505060405180910390fd5b600073ffffffffffffffffffffffffffffffffffffffff166000809054906101000a900473ffffffffffffffffffffffffffffffffffffffff1673ffffffffffffffffffffffffffffffffffffffff167f8be0079c531659141344cd1fd0a4f28419497f9722a3daafe3b4186f6b6457e060405160405180910390a360008060006101000a81548173ffffffffffffffffffffffffffffffffffffffff021916908373ffffffffffffffffffffffffffffffffffffffff160217905550565b600060096000838152602001908152602001600020600101549050919050565b6000600b60008473ffffffffffffffffffffffffffffffffffffffff1673ffffffffffffffffffffffffffffffffffffffff16815260200190815260200160002060008373ffffffffffffffffffffffffffffffffffffffff1673ffffffffffffffffffffffffffffffffffffffff16815260200190815260200160002054905092915050565b6000806000600160008581526020019081526020016000206009015411905080915050919050565b60011515600560008473ffffffffffffffffffffffffffffffffffffffff1673ffffffffffffffffffffffffffffffffffffffff16815260200190815260200160002060009054906101000a900460ff16151514611570576040517f08c379a000000000000000000000000000000000000000000000000000000000815260040180806020018281038252602b815260200180615a9a602b913960400191505060405180910390fd5b60011515600560008373ffffffffffffffffffffffffffffffffffffffff1673ffffffffffffffffffffffffffffffffffffffff16815260200190815260200160002060009054906101000a900460ff16151514611619576040517f08c379a000000000000000000000000000000000000000000000000000000000815260040180806020018281038252602b815260200180615a9a602b913960400191505060405180910390fd5b600d60008373ffffffffffffffffffffffffffffffffffffffff1673ffffffffffffffffffffffffffffffffffffffff16815260200190815260200160002060008273ffffffffffffffffffffffffffffffffffffffff1673ffffffffffffffffffffffffffffffffffffffff16815260200190815260200160002060009054906101000a900460ff1615611716576040517f08c379a00000000000000000000000000000000000000000000000000000000081526004018080602001828103825260198152602001807f546f6b656e205061697220616c7265616479204578697374730000000000000081525060200191505060405180910390fd5b8073ffffffffffffffffffffffffffffffffffffffff168273ffffffffffffffffffffffffffffffffffffffff16141561179b576040517f08c379a0000000000000000000000000000000000000000000000000000000008152600401808060200182810382526026815260200180615a746026913960400191505060405180910390fd5b6008600081548092919060010191905055506001600d60008473ffffffffffffffffffffffffffffffffffffffff1673ffffffffffffffffffffffffffffffffffffffff16815260200190815260200160002060008373ffffffffffffffffffffffffffffffffffffffff1673ffffffffffffffffffffffffffffffffffffffff16815260200190815260200160002060006101000a81548160ff0219169083151502179055506001600d60008373ffffffffffffffffffffffffffffffffffffffff1673ffffffffffffffffffffffffffffffffffffffff16815260200190815260200160002060008473ffffffffffffffffffffffffffffffffffffffff1673ffffffffffffffffffffffffffffffffffffffff16815260200190815260200160002060006101000a81548160ff021916908315150217905550600854600c60008473ffffffffffffffffffffffffffffffffffffffff1673ffffffffffffffffffffffffffffffffffffffff16815260200190815260200160002060008373ffffffffffffffffffffffffffffffffffffffff1673ffffffffffffffffffffffffffffffffffffffff16815260200190815260200160002081905550600854600c60008373ffffffffffffffffffffffffffffffffffffffff1673ffffffffffffffffffffffffffffffffffffffff16815260200190815260200160002060008473ffffffffffffffffffffffffffffffffffffffff1673ffffffffffffffffffffffffffffffffffffffff16815260200190815260200160002081905550600854600e60006008548152602001908152602001600020600001819055506000600660008473ffffffffffffffffffffffffffffffffffffffff1673ffffffffffffffffffffffffffffffffffffffff16815260200190815260200160002060009054906101000a900461ffff1690506000600660008473ffffffffffffffffffffffffffffffffffffffff1673ffffffffffffffffffffffffffffffffffffffff16815260200190815260200160002060009054906101000a900461ffff16905081600e6000600854815260200190815260200160002060010160006101000a81548161ffff021916908361ffff16021790555080600e6000600854815260200190815260200160002060010160026101000a81548161ffff021916908361ffff16021790555050505050565b60008060009054906101000a900473ffffffffffffffffffffffffffffffffffffffff16905090565b60008060009054906101000a900473ffffffffffffffffffffffffffffffffffffffff1673ffffffffffffffffffffffffffffffffffffffff16611b77613355565b73ffffffffffffffffffffffffffffffffffffffff1614905090565b60096020528060005260406000206000915090508060000154908060010154908060020154905083565b600060011515600d60008773ffffffffffffffffffffffffffffffffffffffff1673ffffffffffffffffffffffffffffffffffffffff16815260200190815260200160002060008573ffffffffffffffffffffffffffffffffffffffff1673ffffffffffffffffffffffffffffffffffffffff16815260200190815260200160002060009054906101000a900460ff16151514611cc2576040517f08c379a000000000000000000000000000000000000000000000000000000000815260040180806020018281038252601e8152602001807f5468697320546f6b656e205061697220446f6573206e6f74206578697374000081525060200191505060405180910390fd5b600060149054906101000a900460ff1615611d45576040517f08c379a00000000000000000000000000000000000000000000000000000000081526004018080602001828103825260138152602001807f7265656e747279206e6f7420616c6c6f7765640000000000000000000000000081525060200191505060405180910390fd5b6000600660008773ffffffffffffffffffffffffffffffffffffffff1673ffffffffffffffffffffffffffffffffffffffff16815260200190815260200160002060009054906101000a900461ffff1690506000600660008673ffffffffffffffffffffffffffffffffffffffff1673ffffffffffffffffffffffffffffffffffffffff16815260200190815260200160002060009054906101000a900461ffff169050600073ffffffffffffffffffffffffffffffffffffffff16600360008461ffff1661ffff16815260200190815260200160002060020160029054906101000a900473ffffffffffffffffffffffffffffffffffffffff1673ffffffffffffffffffffffffffffffffffffffff161415611eca576040517f08c379a00000000000000000000000000000000000000000000000000000000081526004018080602001828103825260098152602001807f416464726573732030000000000000000000000000000000000000000000000081525060200191505060405180910390fd5b600073ffffffffffffffffffffffffffffffffffffffff16600360008361ffff1661ffff16815260200190815260200160002060020160029054906101000a900473ffffffffffffffffffffffffffffffffffffffff1673ffffffffffffffffffffffffffffffffffffffff161415611fab576040517f08c379a00000000000000000000000000000000000000000000000000000000081526004018080602001828103825260098152602001807f416464726573732030000000000000000000000000000000000000000000000081525060200191505060405180910390fd5b60008611612021576040517f08c379a00000000000000000000000000000000000000000000000000000000081526004018080602001828103825260198152602001807f53656c6c20416d6f756e742073686f756c64206265203e20300000000000000081525060200191505060405180910390fd5b60008411612097576040517f08c379a00000000000000000000000000000000000000000000000000000000081526004018080602001828103825260188152602001807f42757920416d6f756e742073686f756c64206265203e2030000000000000000081525060200191505060405180910390fd5b60006120a58888888861335d565b9050809350505050949350505050565b60016020528060005260406000206000915090508060000154908060010160009054906101000a900473ffffffffffffffffffffffffffffffffffffffff1690806002018054600181600116156101000203166002900480601f01602080910402602001604051908101604052809291908181526020018280546001816001161561010002031660029004801561218d5780601f106121625761010080835404028352916020019161218d565b820191906000526020600020905b81548152906001019060200180831161217057829003601f168201915b5050505050908060030160009054906101000a900473ffffffffffffffffffffffffffffffffffffffff1690806004015490806005018054600181600116156101000203166002900480601f0160208091040260200160405190810160405280929190818152602001828054600181600116156101000203166002900480156122575780601f1061222c57610100808354040283529160200191612257565b820191906000526020600020905b81548152906001019060200180831161223a57829003601f168201915b5050505050908060060160009054906101000a900473ffffffffffffffffffffffffffffffffffffffff16908060070160009054906101000a900473ffffffffffffffffffffffffffffffffffffffff16908060080160009054906101000a900473ffffffffffffffffffffffffffffffffffffffff1690806009015490508a565b600d6020528160005260406000206020528060005260406000206000915091509054906101000a900460ff1681565b6000600854905090565b600a602052816000526040600020602052806000526040600020600091509150505481565b61233f611b35565b6123b1576040517f08c379a00000000000000000000000000000000000000000000000000000000081526004018080602001828103825260208152602001807f4f776e61626c653a2063616c6c6572206973206e6f7420746865206f776e657281525060200191505060405180910390fd5b60001515600560008573ffffffffffffffffffffffffffffffffffffffff1673ffffffffffffffffffffffffffffffffffffffff16815260200190815260200160002060009054906101000a900460ff16151514612477576040517f08c379a00000000000000000000000000000000000000000000000000000000081526004018080602001828103825260148152602001807f546f6b656e20416c72656164792045786973747300000000000000000000000081525060200191505060405180910390fd5b6001600560008573ffffffffffffffffffffffffffffffffffffffff1673ffffffffffffffffffffffffffffffffffffffff16815260200190815260200160002060006101000a81548160ff0219169083151502179055506004600081819054906101000a900461ffff168092919060010191906101000a81548161ffff021916908361ffff160217905550508260036000600460009054906101000a900461ffff1661ffff1661ffff16815260200190815260200160002060020160026101000a81548173ffffffffffffffffffffffffffffffffffffffff021916908373ffffffffffffffffffffffffffffffffffffffff1602179055508160036000600460009054906101000a900461ffff1661ffff1661ffff16815260200190815260200160002060000190805190602001906125b39291906157a7565b508060036000600460009054906101000a900461ffff1661ffff1661ffff16815260200190815260200160002060010190805190602001906125f69291906157a7565b50600460009054906101000a900461ffff1660036000600460009054906101000a900461ffff1661ffff1661ffff16815260200190815260200160002060020160006101000a81548161ffff021916908361ffff160217905550600460009054906101000a900461ffff16600660008573ffffffffffffffffffffffffffffffffffffffff1673ffffffffffffffffffffffffffffffffffffffff16815260200190815260200160002060006101000a81548161ffff021916908361ffff1602179055507ff711540f34d729d036431d051198fe18d9fd348ad9aa68dfc8b27d5c5f27710783838342604051808573ffffffffffffffffffffffffffffffffffffffff1673ffffffffffffffffffffffffffffffffffffffff1681526020018060200180602001848152602001838103835286818151815260200191508051906020019080838360005b8381101561275b578082015181840152602081019050612740565b50505050905090810190601f1680156127885780820380516001836020036101000a031916815260200191505b50838103825285818151815260200191508051906020019080838360005b838110156127c15780820151818401526020810190506127a6565b50505050905090810190601f1680156127ee5780820380516001836020036101000a031916815260200191505b50965050505050505060405180910390a1505050565b600080600080612812615827565b6001600087815260200190815260200160002060405180610140016040529081600082015481526020016001820160009054906101000a900473ffffffffffffffffffffffffffffffffffffffff1673ffffffffffffffffffffffffffffffffffffffff1673ffffffffffffffffffffffffffffffffffffffff168152602001600282018054600181600116156101000203166002900480601f01602080910402602001604051908101604052809291908181526020018280546001816001161561010002031660029004801561292a5780601f106128ff5761010080835404028352916020019161292a565b820191906000526020600020905b81548152906001019060200180831161290d57829003601f168201915b505050505081526020016003820160009054906101000a900473ffffffffffffffffffffffffffffffffffffffff1673ffffffffffffffffffffffffffffffffffffffff1673ffffffffffffffffffffffffffffffffffffffff16815260200160048201548152602001600582018054600181600116156101000203166002900480601f016020809104026020016040519081016040528092919081815260200182805460018160011615610100020316600290048015612a2c5780601f10612a0157610100808354040283529160200191612a2c565b820191906000526020600020905b815481529060010190602001808311612a0f57829003601f168201915b505050505081526020016006820160009054906101000a900473ffffffffffffffffffffffffffffffffffffffff1673ffffffffffffffffffffffffffffffffffffffff1673ffffffffffffffffffffffffffffffffffffffff1681526020016007820160009054906101000a900473ffffffffffffffffffffffffffffffffffffffff1673ffffffffffffffffffffffffffffffffffffffff1673ffffffffffffffffffffffffffffffffffffffff1681526020016008820160009054906101000a900473ffffffffffffffffffffffffffffffffffffffff1673ffffffffffffffffffffffffffffffffffffffff1673ffffffffffffffffffffffffffffffffffffffff1681526020016009820154815250509050806020015181600001518260c0015183608001519450945094509450509193509193565b6000612b728261149f565b8015612bdf57503373ffffffffffffffffffffffffffffffffffffffff166001600084815260200190815260200160002060080160009054906101000a900473ffffffffffffffffffffffffffffffffffffffff1673ffffffffffffffffffffffffffffffffffffffff16145b612c34576040517f08c379a0000000000000000000000000000000000000000000000000000000008152600401808060200182810382526037815260200180615ac56037913960400191505060405180910390fd5b612c3d826135ab565b612c45615827565b6001600084815260200190815260200160002060405180610140016040529081600082015481526020016001820160009054906101000a900473ffffffffffffffffffffffffffffffffffffffff1673ffffffffffffffffffffffffffffffffffffffff1673ffffffffffffffffffffffffffffffffffffffff168152602001600282018054600181600116156101000203166002900480601f016020809104026020016040519081016040528092919081815260200182805460018160011615610100020316600290048015612d5d5780601f10612d3257610100808354040283529160200191612d5d565b820191906000526020600020905b815481529060010190602001808311612d4057829003601f168201915b505050505081526020016003820160009054906101000a900473ffffffffffffffffffffffffffffffffffffffff1673ffffffffffffffffffffffffffffffffffffffff1673ffffffffffffffffffffffffffffffffffffffff16815260200160048201548152602001600582018054600181600116156101000203166002900480601f016020809104026020016040519081016040528092919081815260200182805460018160011615610100020316600290048015612e5f5780601f10612e3457610100808354040283529160200191612e5f565b820191906000526020600020905b815481529060010190602001808311612e4257829003601f168201915b505050505081526020016006820160009054906101000a900473ffffffffffffffffffffffffffffffffffffffff1673ffffffffffffffffffffffffffffffffffffffff1673ffffffffffffffffffffffffffffffffffffffff1681526020016007820160009054906101000a900473ffffffffffffffffffffffffffffffffffffffff1673ffffffffffffffffffffffffffffffffffffffff1673ffffffffffffffffffffffffffffffffffffffff1681526020016008820160009054906101000a900473ffffffffffffffffffffffffffffffffffffffff1673ffffffffffffffffffffffffffffffffffffffff1673ffffffffffffffffffffffffffffffffffffffff1681526020016009820154815250509050600160008481526020019081526020016000206000808201600090556001820160006101000a81549073ffffffffffffffffffffffffffffffffffffffff0219169055600282016000612fc991906158e8565b6003820160006101000a81549073ffffffffffffffffffffffffffffffffffffffff0219169055600482016000905560058201600061300891906158e8565b6006820160006101000a81549073ffffffffffffffffffffffffffffffffffffffff02191690556007820160006101000a81549073ffffffffffffffffffffffffffffffffffffffff02191690556008820160006101000a81549073ffffffffffffffffffffffffffffffffffffffff021916905560098201600090555050806060015173ffffffffffffffffffffffffffffffffffffffff1663a9059cbb82610100015183600001516040518363ffffffff1660e01b8152600401808373ffffffffffffffffffffffffffffffffffffffff1673ffffffffffffffffffffffffffffffffffffffff16815260200182815260200192505050602060405180830381600087803b15801561311b57600080fd5b505af115801561312f573d6000803e3d6000fd5b505050506040513d602081101561314557600080fd5b810190808051906020019092919050505061315f57600080fd5b80610100015173ffffffffffffffffffffffffffffffffffffffff16837f4203cb734be22e7595b56b3136c863cfe3d994f28a209d11386d1d57890a4dbc83604001518460a001518560000151866080015142604051808060200180602001868152602001858152602001848152602001838103835288818151815260200191508051906020019080838360005b838110156132085780820151818401526020810190506131ed565b50505050905090810190601f1680156132355780820380516001836020036101000a031916815260200191505b50838103825287818151815260200191508051906020019080838360005b8381101561326e578082015181840152602081019050613253565b50505050905090810190601f16801561329b5780820380516001836020036101000a031916815260200191505b5097505050505050505060405180910390a36001915050919050565b6000600460009054906101000a900461ffff16905090565b6132d7611b35565b613349576040517f08c379a00000000000000000000000000000000000000000000000000000000081526004018080602001828103825260208152602001807f4f776e61626c653a2063616c6c6572206973206e6f7420746865206f776e657281525060200191505060405180910390fd5b61335281613a32565b50565b600033905090565b60008060008060008060008060005b6000600a60008d73ffffffffffffffffffffffffffffffffffffffff1673ffffffffffffffffffffffffffffffffffffffff16815260200190815260200160002060008f73ffffffffffffffffffffffffffffffffffffffff1673ffffffffffffffffffffffffffffffffffffffff16815260200190815260200160002054111561356b57600a60008c73ffffffffffffffffffffffffffffffffffffffff1673ffffffffffffffffffffffffffffffffffffffff16815260200190815260200160002060008e73ffffffffffffffffffffffffffffffffffffffff1673ffffffffffffffffffffffffffffffffffffffff16815260200190815260200160002054975060016000898152602001908152602001600020600401549450600160008981526020019081526020016000206000015495506134b5858b613b7690919063ffffffff16565b93506134ca868d613b7690919063ffffffff16565b9250828411156134d95761356b565b898610156134e9578591506134ed565b8991505b6134f78883613bfc565b8996508986101561350a5785915061350e565b8991505b613521828b61446b90919063ffffffff16565b99506135368c8b613b7690919063ffffffff16565b935061354b87856144b590919063ffffffff16565b9b5060008c148061355c575060008a145b156135665761356b565b61336c565b60008a11801561357b575060008c115b156135985761358c8d8d8d8d6144ff565b905061359781614dd5565b5b8098505050505050505050949350505050565b60006001600083815260200190815260200160002060060160009054906101000a900473ffffffffffffffffffffffffffffffffffffffff16905060006001600084815260200190815260200160002060010160009054906101000a900473ffffffffffffffffffffffffffffffffffffffff1690506000600b60008373ffffffffffffffffffffffffffffffffffffffff1673ffffffffffffffffffffffffffffffffffffffff16815260200190815260200160002060008473ffffffffffffffffffffffffffffffffffffffff1673ffffffffffffffffffffffffffffffffffffffff16815260200190815260200160002054116136aa57600080fd5b600060096000858152602001908152602001600020600201541480156136d557506136d48361508b565b5b613747576040517f08c379a00000000000000000000000000000000000000000000000000000000081526004018080602001828103825260208152602001807f546865204944206973206e6f7420696e2074686520736f72746564206c69737481525060200191505060405180910390fd5b600a60008273ffffffffffffffffffffffffffffffffffffffff1673ffffffffffffffffffffffffffffffffffffffff16815260200190815260200160002060008373ffffffffffffffffffffffffffffffffffffffff1673ffffffffffffffffffffffffffffffffffffffff16815260200190815260200160002054831461384e57826009600060096000878152602001908152602001600020600001548152602001908152602001600020600101541461380257600080fd5b60096000848152602001908152602001600020600101546009600060096000878152602001908152602001600020600001548152602001908152602001600020600101819055506138e6565b6009600084815260200190815260200160002060010154600a60008373ffffffffffffffffffffffffffffffffffffffff1673ffffffffffffffffffffffffffffffffffffffff16815260200190815260200160002060008473ffffffffffffffffffffffffffffffffffffffff1673ffffffffffffffffffffffffffffffffffffffff168152602001908152602001600020819055505b600060096000858152602001908152602001600020600101541461398457826009600060096000878152602001908152602001600020600101548152602001908152602001600020600001541461393c57600080fd5b60096000848152602001908152602001600020600001546009600060096000878152602001908152602001600020600101548152602001908152602001600020600001819055505b600b60008273ffffffffffffffffffffffffffffffffffffffff1673ffffffffffffffffffffffffffffffffffffffff16815260200190815260200160002060008373ffffffffffffffffffffffffffffffffffffffff1673ffffffffffffffffffffffffffffffffffffffff168152602001908152602001600020600081548092919060019003919050555060016009600085815260200190815260200160002060020181905550505050565b600073ffffffffffffffffffffffffffffffffffffffff168173ffffffffffffffffffffffffffffffffffffffff161415613ab8576040517f08c379a0000000000000000000000000000000000000000000000000000000008152600401808060200182810382526026815260200180615a026026913960400191505060405180910390fd5b8073ffffffffffffffffffffffffffffffffffffffff166000809054906101000a900473ffffffffffffffffffffffffffffffffffffffff1673ffffffffffffffffffffffffffffffffffffffff167f8be0079c531659141344cd1fd0a4f28419497f9722a3daafe3b4186f6b6457e060405160405180910390a3806000806101000a81548173ffffffffffffffffffffffffffffffffffffffff021916908373ffffffffffffffffffffffffffffffffffffffff16021790555050565b600080831415613b895760009050613bf6565b6000828402905082848281613b9a57fe5b0414613bf1576040517f08c379a0000000000000000000000000000000000000000000000000000000008152600401808060200182810382526021815260200180615a536021913960400191505060405180910390fd5b809150505b92915050565b600060149054906101000a900460ff1615613c1657600080fd5b6001600060146101000a81548160ff021916908315150217905550613c39615827565b6001600084815260200190815260200160002060405180610140016040529081600082015481526020016001820160009054906101000a900473ffffffffffffffffffffffffffffffffffffffff1673ffffffffffffffffffffffffffffffffffffffff1673ffffffffffffffffffffffffffffffffffffffff168152602001600282018054600181600116156101000203166002900480601f016020809104026020016040519081016040528092919081815260200182805460018160011615610100020316600290048015613d515780601f10613d2657610100808354040283529160200191613d51565b820191906000526020600020905b815481529060010190602001808311613d3457829003601f168201915b505050505081526020016003820160009054906101000a900473ffffffffffffffffffffffffffffffffffffffff1673ffffffffffffffffffffffffffffffffffffffff1673ffffffffffffffffffffffffffffffffffffffff16815260200160048201548152602001600582018054600181600116156101000203166002900480601f016020809104026020016040519081016040528092919081815260200182805460018160011615610100020316600290048015613e535780601f10613e2857610100808354040283529160200191613e53565b820191906000526020600020905b815481529060010190602001808311613e3657829003601f168201915b505050505081526020016006820160009054906101000a900473ffffffffffffffffffffffffffffffffffffffff1673ffffffffffffffffffffffffffffffffffffffff1673ffffffffffffffffffffffffffffffffffffffff1681526020016007820160009054906101000a900473ffffffffffffffffffffffffffffffffffffffff1673ffffffffffffffffffffffffffffffffffffffff1673ffffffffffffffffffffffffffffffffffffffff1681526020016008820160009054906101000a900473ffffffffffffffffffffffffffffffffffffffff1673ffffffffffffffffffffffffffffffffffffffff1673ffffffffffffffffffffffffffffffffffffffff16815260200160098201548152505090506001600084815260200190815260200160002060000154821415613f9257613f91836135ab565b5b6000613fab826080015184613b7690919063ffffffff16565b90506000613fc68360000151836144b590919063ffffffff16565b9050613fdf84846000015161446b90919063ffffffff16565b600160008781526020019081526020016000206000018190555061401081846080015161446b90919063ffffffff16565b60016000878152602001908152602001600020600401819055508260e0015173ffffffffffffffffffffffffffffffffffffffff166323b872dd33856101000151846040518463ffffffff1660e01b8152600401808473ffffffffffffffffffffffffffffffffffffffff1673ffffffffffffffffffffffffffffffffffffffff1681526020018373ffffffffffffffffffffffffffffffffffffffff1673ffffffffffffffffffffffffffffffffffffffff1681526020018281526020019350505050602060405180830381600087803b1580156140ee57600080fd5b505af1158015614102573d6000803e3d6000fd5b505050506040513d602081101561411857600080fd5b810190808051906020019092919050505061419b576040517f08c379a00000000000000000000000000000000000000000000000000000000081526004018080602001828103825260108152602001807f546f6b656e20427579204661696c65640000000000000000000000000000000081525060200191505060405180910390fd5b826060015173ffffffffffffffffffffffffffffffffffffffff1663a9059cbb33866040518363ffffffff1660e01b8152600401808373ffffffffffffffffffffffffffffffffffffffff1673ffffffffffffffffffffffffffffffffffffffff16815260200182815260200192505050602060405180830381600087803b15801561422657600080fd5b505af115801561423a573d6000803e3d6000fd5b505050506040513d602081101561425057600080fd5b81019080805190602001909291905050506142d3576040517f08c379a00000000000000000000000000000000000000000000000000000000081526004018080602001828103825260118152602001807f546f6b656e2053616c65204661696c656400000000000000000000000000000081525060200191505060405180910390fd5b60006001600087815260200190815260200160002060000154141561444a576142fb856151d3565b82610100015173ffffffffffffffffffffffffffffffffffffffff16857f691ab3c6a2d6d1464faee81b979ad9de0d5f212bbad14611bc55f77fd7a8974785604001518660a001518760000151886080015142604051808060200180602001868152602001858152602001848152602001838103835288818151815260200191508051906020019080838360005b838110156143a4578082015181840152602081019050614389565b50505050905090810190601f1680156143d15780820380516001836020036101000a031916815260200191505b50838103825287818151815260200191508051906020019080838360005b8381101561440a5780820151818401526020810190506143ef565b50505050905090810190601f1680156144375780820380516001836020036101000a031916815260200191505b5097505050505050505060405180910390a35b50505060008060146101000a81548160ff0219169083151502179055505050565b60006144ad83836040518060400160405280601e81526020017f536166654d6174683a207375627472616374696f6e206f766572666c6f770000815250615345565b905092915050565b60006144f783836040518060400160405280601a81526020017f536166654d6174683a206469766973696f6e206279207a65726f000000000000815250615405565b905092915050565b60008060149054906101000a900460ff161561451a57600080fd5b6001600060146101000a81548160ff0219169083151502179055506000600660008773ffffffffffffffffffffffffffffffffffffffff1673ffffffffffffffffffffffffffffffffffffffff16815260200190815260200160002060009054906101000a900461ffff1690506000600660008673ffffffffffffffffffffffffffffffffffffffff1673ffffffffffffffffffffffffffffffffffffffff16815260200190815260200160002060009054906101000a900461ffff1690506145e1615827565b87816020019073ffffffffffffffffffffffffffffffffffffffff16908173ffffffffffffffffffffffffffffffffffffffff1681525050858160c0019073ffffffffffffffffffffffffffffffffffffffff16908173ffffffffffffffffffffffffffffffffffffffff1681525050600360008461ffff1661ffff1681526020019081526020016000206001018054600181600116156101000203166002900480601f0160208091040260200160405190810160405280929190818152602001828054600181600116156101000203166002900480156147035780601f106146d857610100808354040283529160200191614703565b820191906000526020600020905b8154815290600101906020018083116146e657829003601f168201915b50505050508160400181905250600360008361ffff1661ffff1681526020019081526020016000206001018054600181600116156101000203166002900480601f0160208091040260200160405190810160405280929190818152602001828054600181600116156101000203166002900480156147c25780601f10614797576101008083540402835291602001916147c2565b820191906000526020600020905b8154815290600101906020018083116147a557829003601f168201915b50505050508160a001819052508681600001818152505084816080018181525050600360008461ffff1661ffff16815260200190815260200160002060020160029054906101000a900473ffffffffffffffffffffffffffffffffffffffff16816060019073ffffffffffffffffffffffffffffffffffffffff16908173ffffffffffffffffffffffffffffffffffffffff1681525050600360008361ffff1661ffff16815260200190815260200160002060020160029054906101000a900473ffffffffffffffffffffffffffffffffffffffff168160e0019073ffffffffffffffffffffffffffffffffffffffff16908173ffffffffffffffffffffffffffffffffffffffff16815250503381610100019073ffffffffffffffffffffffffffffffffffffffff16908173ffffffffffffffffffffffffffffffffffffffff1681525050428161012001818152505060011515816060015173ffffffffffffffffffffffffffffffffffffffff166323b872dd33308b6040518463ffffffff1660e01b8152600401808473ffffffffffffffffffffffffffffffffffffffff1673ffffffffffffffffffffffffffffffffffffffff1681526020018373ffffffffffffffffffffffffffffffffffffffff1673ffffffffffffffffffffffffffffffffffffffff1681526020018281526020019350505050602060405180830381600087803b1580156149d657600080fd5b505af11580156149ea573d6000803e3d6000fd5b505050506040513d6020811015614a0057600080fd5b8101908080519060200190929190505050151514614a86576040517f08c379a00000000000000000000000000000000000000000000000000000000081526004018080602001828103825260148152602001807f546f6b656e204465706f736974204661696c656400000000000000000000000081525060200191505060405180910390fd5b6000614a906154cb565b905081600160008381526020019081526020016000206000820151816000015560208201518160010160006101000a81548173ffffffffffffffffffffffffffffffffffffffff021916908373ffffffffffffffffffffffffffffffffffffffff1602179055506040820151816002019080519060200190614b13929190615930565b5060608201518160030160006101000a81548173ffffffffffffffffffffffffffffffffffffffff021916908373ffffffffffffffffffffffffffffffffffffffff1602179055506080820151816004015560a0820151816005019080519060200190614b81929190615930565b5060c08201518160060160006101000a81548173ffffffffffffffffffffffffffffffffffffffff021916908373ffffffffffffffffffffffffffffffffffffffff16021790555060e08201518160070160006101000a81548173ffffffffffffffffffffffffffffffffffffffff021916908373ffffffffffffffffffffffffffffffffffffffff1602179055506101008201518160080160006101000a81548173ffffffffffffffffffffffffffffffffffffffff021916908373ffffffffffffffffffffffffffffffffffffffff16021790555061012082015181600901559050503373ffffffffffffffffffffffffffffffffffffffff16817f1f5c74c0a99133626101d153ed3eb6f2143fd80e1a790a7b5bacebfeae1cea7084604001518560a001518c8b886101200151604051808060200180602001868152602001858152602001848152602001838103835288818151815260200191508051906020019080838360005b83811015614d07578082015181840152602081019050614cec565b50505050905090810190601f168015614d345780820380516001836020036101000a031916815260200191505b50838103825287818151815260200191508051906020019080838360005b83811015614d6d578082015181840152602081019050614d52565b50505050905090810190601f168015614d9a5780820380516001836020036101000a031916815260200191505b5097505050505050505060405180910390a38094505050505060008060146101000a81548160ff021916908315150217905550949350505050565b60008090506000806001600085815260200190815260200160002060060160009054906101000a900473ffffffffffffffffffffffffffffffffffffffff16905060006001600086815260200190815260200160002060010160009054906101000a900473ffffffffffffffffffffffffffffffffffffffff169050614e5a856154e7565b925060008314614eb85760096000848152602001908152602001600020600101549350846009600085815260200190815260200160002060010181905550826009600087815260200190815260200160002060000181905550614fb9565b600a60008273ffffffffffffffffffffffffffffffffffffffff1673ffffffffffffffffffffffffffffffffffffffff16815260200190815260200160002060008373ffffffffffffffffffffffffffffffffffffffff1673ffffffffffffffffffffffffffffffffffffffff16815260200190815260200160002054935084600a60008373ffffffffffffffffffffffffffffffffffffffff1673ffffffffffffffffffffffffffffffffffffffff16815260200190815260200160002060008473ffffffffffffffffffffffffffffffffffffffff1673ffffffffffffffffffffffffffffffffffffffff168152602001908152602001600020819055505b60008414614ff8578460096000868152602001908152602001600020600001819055508360096000878152602001908152602001600020600101819055505b600b60008273ffffffffffffffffffffffffffffffffffffffff1673ffffffffffffffffffffffffffffffffffffffff16815260200190815260200160002060008373ffffffffffffffffffffffffffffffffffffffff1673ffffffffffffffffffffffffffffffffffffffff168152602001908152602001600020600081548092919060010191905055505050505050565b6000806001600084815260200190815260200160002060060160009054906101000a900473ffffffffffffffffffffffffffffffffffffffff16905060006001600085815260200190815260200160002060010160009054906101000a900473ffffffffffffffffffffffffffffffffffffffff169050600080600960008781526020019081526020016000206000015414158061514057506000600960008781526020019081526020016000206001015414155b806151c6575084600a60008473ffffffffffffffffffffffffffffffffffffffff1673ffffffffffffffffffffffffffffffffffffffff16815260200190815260200160002060008573ffffffffffffffffffffffffffffffffffffffff1673ffffffffffffffffffffffffffffffffffffffff16815260200190815260200160002054145b9050809350505050919050565b6151dc8161149f565b615231576040517f08c379a000000000000000000000000000000000000000000000000000000000815260040180806020018281038252602c8152602001806159d6602c913960400191505060405180910390fd5b600160008281526020019081526020016000206000808201600090556001820160006101000a81549073ffffffffffffffffffffffffffffffffffffffff021916905560028201600061528491906158e8565b6003820160006101000a81549073ffffffffffffffffffffffffffffffffffffffff021916905560048201600090556005820160006152c391906158e8565b6006820160006101000a81549073ffffffffffffffffffffffffffffffffffffffff02191690556007820160006101000a81549073ffffffffffffffffffffffffffffffffffffffff02191690556008820160006101000a81549073ffffffffffffffffffffffffffffffffffffffff02191690556009820160009055505050565b60008383111582906153f2576040517f08c379a00000000000000000000000000000000000000000000000000000000081526004018080602001828103825283818151815260200191508051906020019080838360005b838110156153b757808201518184015260208101905061539c565b50505050905090810190601f1680156153e45780820380516001836020036101000a031916815260200191505b509250505060405180910390fd5b5060008385039050809150509392505050565b600080831182906154b1576040517f08c379a00000000000000000000000000000000000000000000000000000000081526004018080602001828103825283818151815260200191508051906020019080838360005b8381101561547657808201518184015260208101905061545b565b50505050905090810190601f1680156154a35780820380516001836020036101000a031916815260200191505b509250505060405180910390fd5b5060008385816154bd57fe5b049050809150509392505050565b6000600260008154809291906001019190505550600254905090565b600080821161555e576040517f08c379a00000000000000000000000000000000000000000000000000000000081526004018080602001828103825260118152602001807f49442063616e6e6f74206265207a65726f00000000000000000000000000000081525060200191505060405180910390fd5b6000600a60006001600086815260200190815260200160002060010160009054906101000a900473ffffffffffffffffffffffffffffffffffffffff1673ffffffffffffffffffffffffffffffffffffffff1673ffffffffffffffffffffffffffffffffffffffff16815260200190815260200160002060006001600086815260200190815260200160002060060160009054906101000a900473ffffffffffffffffffffffffffffffffffffffff1673ffffffffffffffffffffffffffffffffffffffff1673ffffffffffffffffffffffffffffffffffffffff168152602001908152602001600020549050600080905060008061569260016000868152602001908152602001600020600001546001600089815260200190815260200160002060040154613b7690919063ffffffff16565b905060006156d560016000898152602001908152602001600020600001546001600088815260200190815260200160002060040154613b7690919063ffffffff16565b90508082101592505b600085141580156156ec5750825b1561579a578493506009600086815260200190815260200160002060010154945061574c6001600087815260200190815260200160002060000154600160008a815260200190815260200160002060040154613b7690919063ffffffff16565b915061578d60016000898152602001908152602001600020600001546001600088815260200190815260200160002060040154613b7690919063ffffffff16565b90508082101592506156de565b8395505050505050919050565b828054600181600116156101000203166002900490600052602060002090601f016020900481019282601f106157e857805160ff1916838001178555615816565b82800160010185558215615816579182015b828111156158155782518255916020019190600101906157fa565b5b50905061582391906159b0565b5090565b60405180610140016040528060008152602001600073ffffffffffffffffffffffffffffffffffffffff16815260200160608152602001600073ffffffffffffffffffffffffffffffffffffffff1681526020016000815260200160608152602001600073ffffffffffffffffffffffffffffffffffffffff168152602001600073ffffffffffffffffffffffffffffffffffffffff168152602001600073ffffffffffffffffffffffffffffffffffffffff168152602001600081525090565b50805460018160011615610100020316600290046000825580601f1061590e575061592d565b601f01602090049060005260206000209081019061592c91906159b0565b5b50565b828054600181600116156101000203166002900490600052602060002090601f016020900481019282601f1061597157805160ff191683800117855561599f565b8280016001018555821561599f579182015b8281111561599e578251825591602001919060010190615983565b5b5090506159ac91906159b0565b5090565b6159d291905b808211156159ce5760008160009055506001016159b6565b5090565b9056fe5472616e73616374696f6e20494420697320496e616374697665206f7220646f6573206e6f742065786973744f776e61626c653a206e6577206f776e657220697320746865207a65726f20616464726573734e6f20746f6b656e2077697468207468697320636f6e74726163742061646472657373206578697374732e536166654d6174683a206d756c7469706c69636174696f6e206f766572666c6f77546f6b656e205061697220697320666f722074776f20646966666572656e7420746f6b656e73546f6b656e2077697468207468697320636f6e74726163742061646472657373206e6f7420666f756e642e4569746865722074686520494420697320696e616374697665206f72207468652073656e64657220697320756e617574686f72697a6564a265627a7a723158208163e4342cdb1d5e7b80aa15f216e8d42f37e2188da8d5a9126b3fb6a17a66f064736f6c63430005100032",
  "source": "// SPDX-License-Identifier: MIT\r\n\r\npragma solidity >=0.5.0 < 0.8.0;\r\n\r\nimport \"@openzeppelin/contracts/ownership/Ownable.sol\";\r\nimport \"@openzeppelin/contracts/math/SafeMath.sol\";\r\nimport \"@openzeppelin/contracts/token/ERC20/IERC20.sol\";\r\n\r\ncontract Dex is Ownable {\r\n\r\n    using SafeMath for uint;\r\n\r\n    bool rex;// re-entrance check\r\n\r\n    struct OfferData {\r\n        uint sellAmount;\r\n        address sellTokenAddress;\r\n        string sellTokenSymbol;\r\n        IERC20 sellToken;\r\n        uint buyAmount;\r\n        string buyTokenSymbol;\r\n        address buyTokenAddress;\r\n        IERC20 buyToken;\r\n        address who;\r\n        uint timeStamp;\r\n    }\r\n\r\n    mapping (uint => OfferData) public offerList;\r\n\r\n    uint public offerId;\r\n\r\n    struct Token {\r\n        string tokenName;\r\n        string tokenSymbol;\r\n        uint16 tokenIndex;\r\n        address tokenAddress;\r\n    }\r\n\r\n    struct TokenPair {\r\n        uint pairId;\r\n        uint16 token1;\r\n        uint16 token2;\r\n    }\r\n\r\n    struct ListInfo {\r\n        uint nextOffer;\r\n        uint prevOffer;\r\n        uint deleted;\r\n    }\r\n\r\n    mapping (uint16 => Token) tokens;\r\n    uint16 tokenIndex;\r\n    mapping (address => bool) tokenList;\r\n    mapping (address => uint16) tokenIndexList;\r\n\r\n    // Address Balances\r\n    mapping(address => mapping(uint16 => uint)) addressTokenBalance;\r\n\r\n    //Ranked List and Token Pairs\r\n    uint pairIndex;\r\n    mapping(uint => ListInfo) public listRank;// List Info for a given ID\r\n    mapping(address => mapping(address => uint)) public pairHighestOffer;\r\n    mapping(address => mapping(address => uint)) public pairNumOffers;\r\n    mapping(address => mapping(address => uint)) public pairID;\r\n    mapping(address => mapping(address => bool)) public pairList;\r\n\r\n    mapping(uint => TokenPair) tokenPairs;\r\n\r\n    //Events List\r\n\r\n    event TokenAdded(address _tokenAddress, string _tokenName, string _tokenSymbol, uint _timeStamp);\r\n\r\n    event OrderAddedToMarketEscrow(uint indexed _id,address indexed _from, string _sellTokenSymbol, string _buyTokenSymbol,\r\n     uint _sellAmount, uint _buyAmount, uint _timeStamp);\r\n    event OrderCancelled(uint indexed _id, address indexed _from, string _sellTokenSymbol, string _buyTokenSymbol,\r\n     uint _sellAmount, uint _buyAmount, uint _timeStamp );\r\n    event OrderFulFilled(uint indexed _id, address indexed _owner, string _sellTokenSymbol, string _buyTokenSymbol,\r\n     uint _sellAmount, uint _buyAmount, uint _timeStamp );\r\n\r\n    // re-entry Check\r\n\r\n    modifier reEntryCheck {\r\n        require(!rex);\r\n        rex = true;\r\n        _;\r\n        rex = false;\r\n    }\r\n\r\n    function addToken(address _tokenAddress, string memory _tokenName, string memory _tokenSymbol) public onlyOwner {\r\n        require(tokenList[_tokenAddress] == false, \"Token Already Exists\");\r\n\r\n        tokenList[_tokenAddress] = true;\r\n        tokenIndex++;\r\n        tokens[tokenIndex].tokenAddress = _tokenAddress;\r\n        tokens[tokenIndex].tokenName = _tokenName;\r\n        tokens[tokenIndex].tokenSymbol = _tokenSymbol;\r\n        tokens[tokenIndex].tokenIndex = tokenIndex;\r\n        tokenIndexList[_tokenAddress] = tokenIndex;\r\n        emit TokenAdded(_tokenAddress,_tokenName,_tokenSymbol,now);\r\n    }\r\n\r\n    function getTotalTokens() public view returns (uint16) {\r\n        return tokenIndex;\r\n    }\r\n\r\n    function getTokenBalance(address _tokenAddress) public view returns (uint) {\r\n        require(tokenList[_tokenAddress] == true,\"No token with this contract address exists.\");\r\n        uint16 tokenSymbolIndex = tokenIndexList[_tokenAddress];\r\n\r\n        return addressTokenBalance[msg.sender][tokenSymbolIndex];\r\n    }\r\n\r\n    function getOfferId() internal returns(uint) {\r\n        offerId++;\r\n        return offerId;\r\n    }\r\n    //Limit Order Implementation\r\n    function tradeOffer(address _tokenAddress1, uint _quantity1, address _tokenAddress2, uint _quantity2) public returns(uint) {\r\n        require(pairList[_tokenAddress1][_tokenAddress2] == true,\"This Token Pair Does not exist\");\r\n        require(!rex,\"reentry not allowed\");\r\n        //RE-ENTRANCY CHECKS\r\n        uint16 tokenSymbolIndex1 = tokenIndexList[_tokenAddress1];\r\n        uint16 tokenSymbolIndex2 = tokenIndexList[_tokenAddress2];\r\n        require(tokens[tokenSymbolIndex1].tokenAddress != address(0),\"Address 0\");\r\n        require(tokens[tokenSymbolIndex2].tokenAddress != address(0),\"Address 0\");\r\n        require(_quantity1 > 0,\"Sell Amount should be > 0\");\r\n        require(_quantity2 > 0,\"Buy Amount should be > 0\");\r\n\r\n        uint id = matchEngine(_tokenAddress1, _quantity1, _tokenAddress2,_quantity2);\r\n\r\n        return id;\r\n    }\r\n\r\n    function createTokenPair(address _tokenAddress1, address _tokenAddress2) public {\r\n        require(tokenList[_tokenAddress1] == true,\"Token with this contract address not found.\");\r\n        require(tokenList[_tokenAddress2] == true,\"Token with this contract address not found.\");\r\n        require(!pairList[_tokenAddress1][_tokenAddress2],\"Token Pair already Exists\");\r\n        require(_tokenAddress1 != _tokenAddress2,\"Token Pair is for two different tokens\");\r\n\r\n        pairIndex++;\r\n        pairList[_tokenAddress1][_tokenAddress2] = true;\r\n        pairList[_tokenAddress2][_tokenAddress1] = true;\r\n\r\n        pairID[_tokenAddress1][_tokenAddress2] = pairIndex;\r\n        pairID[_tokenAddress2][_tokenAddress1] = pairIndex;\r\n\r\n        tokenPairs[pairIndex].pairId = pairIndex;\r\n        uint16 id1 = tokenIndexList[_tokenAddress1];\r\n        uint16 id2 = tokenIndexList[_tokenAddress2];\r\n\r\n        tokenPairs[pairIndex].token1 = id1;\r\n        tokenPairs[pairIndex].token2 = id2;\r\n\r\n    }\r\n\r\n    function getPairInfo(uint _id) public view returns (address,string memory,address,string memory) {\r\n        return (tokens[tokenPairs[_id].token1].tokenAddress,tokens[tokenPairs[_id].token1].tokenSymbol,\r\n        tokens[tokenPairs[_id].token2].tokenAddress,tokens[tokenPairs[_id].token2].tokenSymbol);\r\n    }\r\n\r\n    function getTotalPairs() public view returns (uint) {\r\n        return pairIndex;\r\n    }\r\n\r\n    function getOfferSize(address sellAddress, address buyAddress) public view returns (uint) {\r\n        return pairNumOffers[sellAddress][buyAddress];\r\n    }\r\n\r\n    function getOfferPerId(uint _id) public view returns (address,uint,address,uint) {\r\n        OfferData memory offer = offerList[_id];\r\n\r\n        return (offer.sellTokenAddress,offer.sellAmount,offer.buyTokenAddress,offer.buyAmount);\r\n    }\r\n\r\n    function getBestOffer(address sellAddress, address buyAddress) public view returns (uint) {\r\n        return pairHighestOffer[sellAddress][buyAddress];\r\n    }\r\n\r\n    function getNextOffer(uint id) public view returns(uint) {\r\n        return listRank[id].nextOffer;\r\n    }\r\n\r\n    function getPrevOffer(uint id) public view returns(uint) {\r\n        return listRank[id].prevOffer;\r\n    }\r\n\r\n    function isIDSorted(uint id) internal view returns (bool) {\r\n        address buyAddress = offerList[id].buyTokenAddress;\r\n        address sellAddress = offerList[id].sellTokenAddress;\r\n        bool isSorted = listRank[id].nextOffer != 0 || listRank[id].prevOffer != 0 ||\r\n         pairHighestOffer[sellAddress][buyAddress] == id;\r\n\r\n        return isSorted;\r\n    }\r\n\r\n    function sortList(uint id) internal {\r\n        uint prevId = 0;\r\n        uint x;\r\n        address buyAddress = offerList[id].buyTokenAddress;\r\n        address sellAddress = offerList[id].sellTokenAddress;\r\n\r\n        x = findNext(id);\r\n\r\n        if (x != 0) {\r\n            prevId = listRank[x].prevOffer;\r\n            listRank[x].prevOffer = id;\r\n            listRank[id].nextOffer = x;\r\n        } else {\r\n            prevId = pairHighestOffer[sellAddress][buyAddress];\r\n            pairHighestOffer[sellAddress][buyAddress] = id;\r\n        }\r\n\r\n        if (prevId != 0) {\r\n            listRank[prevId].nextOffer = id;\r\n            listRank[id].prevOffer = prevId;\r\n        }\r\n\r\n        pairNumOffers[sellAddress][buyAddress]++;\r\n    }\r\n\r\n    function unsortList(uint id) internal {\r\n        address buyAddress = offerList[id].buyTokenAddress;\r\n        address sellAddress = offerList[id].sellTokenAddress;\r\n\r\n        require(pairNumOffers[sellAddress][buyAddress] > 0);\r\n        require(listRank[id].deleted == 0 && isIDSorted(id),\"The ID is not in the sorted list\");\r\n\r\n        if (id != pairHighestOffer[sellAddress][buyAddress]) {\r\n            require(listRank[listRank[id].nextOffer].prevOffer == id);\r\n            listRank[listRank[id].nextOffer].prevOffer = listRank[id].prevOffer;\r\n        } else {\r\n            pairHighestOffer[sellAddress][buyAddress] = listRank[id].prevOffer;\r\n        }\r\n\r\n        if (listRank[id].prevOffer != 0) {\r\n            require(listRank[listRank[id].prevOffer].nextOffer == id);\r\n            listRank[listRank[id].prevOffer].nextOffer = listRank[id].nextOffer;\r\n        }\r\n\r\n        pairNumOffers[sellAddress][buyAddress]--;\r\n        listRank[id].deleted = 1;\r\n    }\r\n\r\n    function findNext(uint id) internal view returns(uint) {\r\n        require(id > 0,\"ID cannot be zero\");\r\n\r\n        uint highest = pairHighestOffer[offerList[id].sellTokenAddress][offerList[id].buyTokenAddress];\r\n        uint prevHighest = 0;\r\n\r\n        bool conditionCheck;\r\n\r\n        uint m1 = offerList[id].buyAmount.mul(offerList[highest].sellAmount);\r\n        uint m2 = offerList[highest].buyAmount.mul(offerList[id].sellAmount);\r\n\r\n        conditionCheck = (m1 >= m2);\r\n\r\n        while (highest != 0 && conditionCheck) {\r\n            prevHighest = highest;\r\n            highest = listRank[highest].prevOffer;\r\n\r\n            m1 = offerList[id].buyAmount.mul(offerList[highest].sellAmount);\r\n            m2 = offerList[highest].buyAmount.mul(offerList[id].sellAmount);\r\n\r\n            conditionCheck = (m1 >= m2);\r\n        }\r\n\r\n        return prevHighest;\r\n\r\n    }\r\n\r\n    function createOffer(address _tokenAddress1, uint _quantity1, address _tokenAddress2, uint _quantity2) internal reEntryCheck returns (uint) {\r\n        uint16 tokenSymbolIndex1 = tokenIndexList[_tokenAddress1];\r\n        uint16 tokenSymbolIndex2 = tokenIndexList[_tokenAddress2];\r\n        OfferData memory offer;\r\n\r\n        offer.sellTokenAddress = _tokenAddress1;\r\n        offer.buyTokenAddress = _tokenAddress2;\r\n        offer.sellTokenSymbol = tokens[tokenSymbolIndex1].tokenSymbol;\r\n        offer.buyTokenSymbol = tokens[tokenSymbolIndex2].tokenSymbol;\r\n        offer.sellAmount = _quantity1;\r\n        offer.buyAmount = _quantity2;\r\n        offer.sellToken = IERC20(tokens[tokenSymbolIndex1].tokenAddress);\r\n        offer.buyToken = IERC20(tokens[tokenSymbolIndex2].tokenAddress);\r\n        offer.who = msg.sender;\r\n        offer.timeStamp = now;\r\n\r\n        require(offer.sellToken.transferFrom(msg.sender, address(this), _quantity1) == true,\"Token Deposit Failed\");\r\n        uint id = getOfferId();\r\n\r\n        offerList[id] = offer;\r\n\r\n        emit OrderAddedToMarketEscrow(id, msg.sender, offer.sellTokenSymbol, offer.buyTokenSymbol, _quantity1,\r\n         _quantity2, offer.timeStamp);\r\n\r\n        return id;\r\n    }\r\n\r\n    function isActive(uint _id) public view returns (bool) {\r\n        bool ret = offerList[_id].timeStamp > 0;\r\n        return ret;\r\n    }\r\n\r\n    function deleteOffer(uint _id) internal {\r\n        require(isActive(_id),\"Transaction ID is Inactive or does not exist\");\r\n        delete offerList[_id];\r\n    }\r\n\r\n    function cancelOffer(uint _id) public returns (bool) {\r\n        require(isActive(_id) && (offerList[_id].who == msg.sender),\"Either the ID is inactive or the sender is unauthorized\");\r\n        unsortList(_id);\r\n        OfferData memory offer = offerList[_id];\r\n        delete offerList[_id];\r\n\r\n        require(offer.sellToken.transfer(offer.who,offer.sellAmount));\r\n        emit OrderCancelled(_id,offer.who,offer.sellTokenSymbol,offer.buyTokenSymbol,offer.sellAmount,offer.buyAmount,now);\r\n        return true;\r\n    }\r\n\r\n    function buy(uint id, uint quantity) internal reEntryCheck {\r\n        OfferData memory temp = offerList[id];\r\n\r\n        if (quantity == offerList[id].sellAmount) {\r\n            unsortList(id);\r\n        }\r\n\r\n        uint m1 = quantity.mul(temp.buyAmount);\r\n        uint d1 = m1.div(temp.sellAmount);\r\n\r\n\r\n        offerList[id].sellAmount = temp.sellAmount.sub(quantity);\r\n        offerList[id].buyAmount = temp.buyAmount.sub(d1);\r\n        require(temp.buyToken.transferFrom(msg.sender,temp.who,d1),\"Token Buy Failed\");\r\n        require(temp.sellToken.transfer(msg.sender,quantity),\"Token Sale Failed\");\r\n\r\n        if (offerList[id].sellAmount == 0) {\r\n            deleteOffer(id);\r\n            emit OrderFulFilled(id,temp.who,temp.sellTokenSymbol,temp.buyTokenSymbol,temp.sellAmount,temp.buyAmount,now);\r\n        }\r\n    }\r\n\r\n    function matchEngine(address sellTokenAddress,uint tSellQuantity,address buyTokenAddress, uint tBuyQuantity) internal returns (uint) {\r\n        uint mHighestId;\r\n        uint tBuyQuantityPrev;\r\n        uint mSellQuantity;\r\n        uint mBuyQuantity;\r\n        uint m1;\r\n        uint m2;\r\n        uint quantity;\r\n        uint newId;\r\n\r\n        while (pairHighestOffer[buyTokenAddress][sellTokenAddress] > 0) {\r\n            mHighestId = pairHighestOffer[buyTokenAddress][sellTokenAddress];\r\n            mBuyQuantity = offerList[mHighestId].buyAmount;\r\n            mSellQuantity = offerList[mHighestId].sellAmount;\r\n\r\n            m1 = tBuyQuantity.mul(mBuyQuantity);\r\n            m2 = tSellQuantity.mul(mSellQuantity);\r\n\r\n            if (m1 > m2) {\r\n                break;\r\n            }\r\n\r\n            if (mSellQuantity < tBuyQuantity) {\r\n                quantity = mSellQuantity;\r\n            } else {\r\n                quantity = tBuyQuantity;\r\n            }\r\n\r\n            buy(mHighestId,quantity);\r\n            tBuyQuantityPrev = tBuyQuantity;\r\n\r\n            if (mSellQuantity < tBuyQuantity) {\r\n                quantity = mSellQuantity;\r\n            } else {\r\n                quantity = tBuyQuantity;\r\n            }\r\n\r\n            tBuyQuantity = tBuyQuantity.sub(quantity);\r\n\r\n            m1 = tBuyQuantity.mul(tSellQuantity);\r\n\r\n            tSellQuantity = m1.div(tBuyQuantityPrev);\r\n\r\n            if (tSellQuantity == 0 || tBuyQuantity == 0) {\r\n                break;\r\n            }\r\n        }\r\n\r\n        if (tBuyQuantity > 0 && tSellQuantity > 0) {\r\n            newId = createOffer(sellTokenAddress,tSellQuantity,buyTokenAddress,tBuyQuantity);\r\n            sortList(newId);\r\n        }\r\n\r\n        return newId;\r\n    }\r\n\r\n}",
  "sourcePath": "E:/Binance/binancematch/truffle/contracts/DEX.sol",
  "compiler": {
    "name": "solc",
    "version": "0.5.16+commit.9c3226ce.Emscripten.clang"
  },
  "schemaVersion": "3.3.2",
  "updatedAt": "2021-02-18T05:21:06.411Z",
  "networkType": "ethereum",
  "devdoc": {
    "methods": {
      "isOwner()": {
        "details": "Returns true if the caller is the current owner."
      },
      "owner()": {
        "details": "Returns the address of the current owner."
      },
      "renounceOwnership()": {
        "details": "Leaves the contract without owner. It will not be possible to call `onlyOwner` functions anymore. Can only be called by the current owner.     * NOTE: Renouncing ownership will leave the contract without an owner, thereby removing any functionality that is only available to the owner."
      },
      "transferOwnership(address)": {
        "details": "Transfers ownership of the contract to a new account (`newOwner`). Can only be called by the current owner."
      }
    }
  },
  "userdoc": {
    "methods": {}
  }
}