{
  "contractName": "Faucet",
  "abi": [
    {
      "anonymous": false,
      "inputs": [
        {
          "indexed": true,
          "internalType": "address",
          "name": "previousOwner",
          "type": "address"
        },
        {
          "indexed": true,
          "internalType": "address",
          "name": "newOwner",
          "type": "address"
        }
      ],
      "name": "OwnershipTransferred",
      "type": "event"
    },
    {
      "anonymous": false,
      "inputs": [
        {
          "indexed": false,
          "internalType": "address",
          "name": "_tokenAddress",
          "type": "address"
        },
        {
          "indexed": false,
          "internalType": "string",
          "name": "_tokenName",
          "type": "string"
        },
        {
          "indexed": false,
          "internalType": "string",
          "name": "_tokenSymbol",
          "type": "string"
        },
        {
          "indexed": false,
          "internalType": "uint256",
          "name": "_timeStamp",
          "type": "uint256"
        }
      ],
      "name": "TokenAdded",
      "type": "event"
    },
    {
      "anonymous": false,
      "inputs": [
        {
          "indexed": false,
          "internalType": "address",
          "name": "_from",
          "type": "address"
        },
        {
          "indexed": false,
          "internalType": "address",
          "name": "_tokenAddress",
          "type": "address"
        },
        {
          "indexed": false,
          "internalType": "uint256",
          "name": "_amount",
          "type": "uint256"
        },
        {
          "indexed": false,
          "internalType": "uint256",
          "name": "_timeStamp",
          "type": "uint256"
        }
      ],
      "name": "TokenDeposited",
      "type": "event"
    },
    {
      "anonymous": false,
      "inputs": [
        {
          "indexed": false,
          "internalType": "address",
          "name": "_to",
          "type": "address"
        },
        {
          "indexed": false,
          "internalType": "uint256",
          "name": "_amount",
          "type": "uint256"
        },
        {
          "indexed": false,
          "internalType": "uint256",
          "name": "_timeStamp",
          "type": "uint256"
        }
      ],
      "name": "TokenWithdrawn",
      "type": "event"
    },
    {
      "constant": true,
      "inputs": [],
      "name": "isOwner",
      "outputs": [
        {
          "internalType": "bool",
          "name": "",
          "type": "bool"
        }
      ],
      "payable": false,
      "stateMutability": "view",
      "type": "function"
    },
    {
      "constant": true,
      "inputs": [],
      "name": "owner",
      "outputs": [
        {
          "internalType": "address",
          "name": "",
          "type": "address"
        }
      ],
      "payable": false,
      "stateMutability": "view",
      "type": "function"
    },
    {
      "constant": false,
      "inputs": [],
      "name": "renounceOwnership",
      "outputs": [],
      "payable": false,
      "stateMutability": "nonpayable",
      "type": "function"
    },
    {
      "constant": false,
      "inputs": [
        {
          "internalType": "address",
          "name": "newOwner",
          "type": "address"
        }
      ],
      "name": "transferOwnership",
      "outputs": [],
      "payable": false,
      "stateMutability": "nonpayable",
      "type": "function"
    },
    {
      "constant": false,
      "inputs": [
        {
          "internalType": "address",
          "name": "_tokenAddress",
          "type": "address"
        },
        {
          "internalType": "string",
          "name": "_tokenName",
          "type": "string"
        },
        {
          "internalType": "string",
          "name": "_tokenSymbol",
          "type": "string"
        }
      ],
      "name": "addToken",
      "outputs": [],
      "payable": false,
      "stateMutability": "nonpayable",
      "type": "function"
    },
    {
      "constant": false,
      "inputs": [
        {
          "internalType": "address",
          "name": "_tokenAddress",
          "type": "address"
        },
        {
          "internalType": "uint256",
          "name": "_amount",
          "type": "uint256"
        }
      ],
      "name": "depositToken",
      "outputs": [],
      "payable": false,
      "stateMutability": "nonpayable",
      "type": "function"
    },
    {
      "constant": true,
      "inputs": [
        {
          "internalType": "address",
          "name": "_tokenAddress",
          "type": "address"
        }
      ],
      "name": "getTokenBalance",
      "outputs": [
        {
          "internalType": "uint256",
          "name": "",
          "type": "uint256"
        }
      ],
      "payable": false,
      "stateMutability": "view",
      "type": "function"
    },
    {
      "constant": false,
      "inputs": [],
      "name": "withdraw",
      "outputs": [],
      "payable": false,
      "stateMutability": "nonpayable",
      "type": "function"
    }
  ],
  "bytecode": "0x608060405260006100146100b760201b60201c565b9050806000806101000a81548173ffffffffffffffffffffffffffffffffffffffff021916908373ffffffffffffffffffffffffffffffffffffffff1602179055508073ffffffffffffffffffffffffffffffffffffffff16600073ffffffffffffffffffffffffffffffffffffffff167f8be0079c531659141344cd1fd0a4f28419497f9722a3daafe3b4186f6b6457e060405160405180910390a3506100bf565b600033905090565b611782806100ce6000396000f3fe608060405234801561001057600080fd5b50600436106100885760003560e01c80638da5cb5b1161005b5780638da5cb5b146101475780638f32d59b14610191578063e73c2019146101b3578063f2fde38b1461032557610088565b8063338b5dea1461008d5780633aecd0e3146100db5780633ccfd60b14610133578063715018a61461013d575b600080fd5b6100d9600480360360408110156100a357600080fd5b81019080803573ffffffffffffffffffffffffffffffffffffffff16906020019092919080359060200190929190505050610369565b005b61011d600480360360208110156100f157600080fd5b81019080803573ffffffffffffffffffffffffffffffffffffffff1690602001909291905050506107f7565b6040518082815260200191505060405180910390f35b61013b61091b565b005b610145610c03565b005b61014f610d3c565b604051808273ffffffffffffffffffffffffffffffffffffffff1673ffffffffffffffffffffffffffffffffffffffff16815260200191505060405180910390f35b610199610d65565b604051808215151515815260200191505060405180910390f35b610323600480360360608110156101c957600080fd5b81019080803573ffffffffffffffffffffffffffffffffffffffff1690602001909291908035906020019064010000000081111561020657600080fd5b82018360208201111561021857600080fd5b8035906020019184600183028401116401000000008311171561023a57600080fd5b91908080601f016020809104026020016040519081016040528093929190818152602001838380828437600081840152601f19601f8201169050808301925050505050505091929192908035906020019064010000000081111561029d57600080fd5b8201836020820111156102af57600080fd5b803590602001918460018302840111640100000000831117156102d157600080fd5b91908080601f016020809104026020016040519081016040528093929190818152602001838380828437600081840152601f19601f820116905080830192505050505050509192919290505050610dc3565b005b6103676004803603602081101561033b57600080fd5b81019080803573ffffffffffffffffffffffffffffffffffffffff1690602001909291905050506112c4565b005b60011515600360008473ffffffffffffffffffffffffffffffffffffffff1673ffffffffffffffffffffffffffffffffffffffff16815260200190815260200160002060009054906101000a900460ff16151514610412576040517f08c379a000000000000000000000000000000000000000000000000000000000815260040180806020018281038252602b8152602001806116f4602b913960400191505060405180910390fd5b6000600460008473ffffffffffffffffffffffffffffffffffffffff1673ffffffffffffffffffffffffffffffffffffffff16815260200190815260200160002060009054906101000a900461ffff169050600073ffffffffffffffffffffffffffffffffffffffff16600160008361ffff1661ffff16815260200190815260200160002060020160029054906101000a900473ffffffffffffffffffffffffffffffffffffffff1673ffffffffffffffffffffffffffffffffffffffff161415610545576040517f08c379a00000000000000000000000000000000000000000000000000000000081526004018080602001828103825260098152602001807f416464726573732030000000000000000000000000000000000000000000000081525060200191505060405180910390fd5b6000600160008361ffff1661ffff16815260200190815260200160002060020160029054906101000a900473ffffffffffffffffffffffffffffffffffffffff169050600115158173ffffffffffffffffffffffffffffffffffffffff166323b872dd3330876040518463ffffffff1660e01b8152600401808473ffffffffffffffffffffffffffffffffffffffff1673ffffffffffffffffffffffffffffffffffffffff1681526020018373ffffffffffffffffffffffffffffffffffffffff1673ffffffffffffffffffffffffffffffffffffffff1681526020018281526020019350505050602060405180830381600087803b15801561064757600080fd5b505af115801561065b573d6000803e3d6000fd5b505050506040513d602081101561067157600080fd5b81019080805190602001909291905050501515146106f7576040517f08c379a00000000000000000000000000000000000000000000000000000000081526004018080602001828103825260148152602001807f546f6b656e204465706f736974204661696c656400000000000000000000000081525060200191505060405180910390fd5b61072883600160008561ffff1661ffff1681526020019081526020016000206003015461134a90919063ffffffff16565b600160008461ffff1661ffff168152602001908152602001600020600301819055507f080c225c8e9d9f966820ef915f5f555d575e9c3a188f1252d19e94aa2250f09d33858542604051808573ffffffffffffffffffffffffffffffffffffffff1673ffffffffffffffffffffffffffffffffffffffff1681526020018473ffffffffffffffffffffffffffffffffffffffff1673ffffffffffffffffffffffffffffffffffffffff16815260200183815260200182815260200194505050505060405180910390a150505050565b600060011515600360008473ffffffffffffffffffffffffffffffffffffffff1673ffffffffffffffffffffffffffffffffffffffff16815260200190815260200160002060009054906101000a900460ff161515146108a2576040517f08c379a000000000000000000000000000000000000000000000000000000000815260040180806020018281038252602b8152602001806116f4602b913960400191505060405180910390fd5b6000600460008473ffffffffffffffffffffffffffffffffffffffff1673ffffffffffffffffffffffffffffffffffffffff16815260200190815260200160002060009054906101000a900461ffff169050600160008261ffff1661ffff16815260200190815260200160002060030154915050919050565b6000683635c9adc5dea0000090506000600190505b600260009054906101000a900461ffff1661ffff168161ffff1611610b8c576000600160008361ffff1661ffff16815260200190815260200160002060020160029054906101000a900473ffffffffffffffffffffffffffffffffffffffff16905060006109c584600160008661ffff1661ffff168152602001908152602001600020600301546113d290919063ffffffff16565b90506000811015610a21576040517f08c379a000000000000000000000000000000000000000000000000000000000815260040180806020018281038252602f81526020018061171f602f913960400191505060405180910390fd5b80600160008561ffff1661ffff16815260200190815260200160002060030181905550600115158273ffffffffffffffffffffffffffffffffffffffff1663a9059cbb33876040518363ffffffff1660e01b8152600401808373ffffffffffffffffffffffffffffffffffffffff1673ffffffffffffffffffffffffffffffffffffffff16815260200182815260200192505050602060405180830381600087803b158015610acf57600080fd5b505af1158015610ae3573d6000803e3d6000fd5b505050506040513d6020811015610af957600080fd5b8101908080519060200190929190505050151514610b7f576040517f08c379a00000000000000000000000000000000000000000000000000000000081526004018080602001828103825260178152602001807f546f6b656e205769746864726177616c204661696c656400000000000000000081525060200191505060405180910390fd5b5050806001019050610930565b507f87941ed80175e66d99234a2a90bcf26c6dd49f0fd15c0fd5cb5d3d6acd9cabf7338242604051808473ffffffffffffffffffffffffffffffffffffffff1673ffffffffffffffffffffffffffffffffffffffff168152602001838152602001828152602001935050505060405180910390a150565b610c0b610d65565b610c7d576040517f08c379a00000000000000000000000000000000000000000000000000000000081526004018080602001828103825260208152602001807f4f776e61626c653a2063616c6c6572206973206e6f7420746865206f776e657281525060200191505060405180910390fd5b600073ffffffffffffffffffffffffffffffffffffffff166000809054906101000a900473ffffffffffffffffffffffffffffffffffffffff1673ffffffffffffffffffffffffffffffffffffffff167f8be0079c531659141344cd1fd0a4f28419497f9722a3daafe3b4186f6b6457e060405160405180910390a360008060006101000a81548173ffffffffffffffffffffffffffffffffffffffff021916908373ffffffffffffffffffffffffffffffffffffffff160217905550565b60008060009054906101000a900473ffffffffffffffffffffffffffffffffffffffff16905090565b60008060009054906101000a900473ffffffffffffffffffffffffffffffffffffffff1673ffffffffffffffffffffffffffffffffffffffff16610da761141c565b73ffffffffffffffffffffffffffffffffffffffff1614905090565b610dcb610d65565b610e3d576040517f08c379a00000000000000000000000000000000000000000000000000000000081526004018080602001828103825260208152602001807f4f776e61626c653a2063616c6c6572206973206e6f7420746865206f776e657281525060200191505060405180910390fd5b60001515600360008573ffffffffffffffffffffffffffffffffffffffff1673ffffffffffffffffffffffffffffffffffffffff16815260200190815260200160002060009054906101000a900460ff16151514610f03576040517f08c379a00000000000000000000000000000000000000000000000000000000081526004018080602001828103825260148152602001807f546f6b656e20416c72656164792045786973747300000000000000000000000081525060200191505060405180910390fd5b6001600360008573ffffffffffffffffffffffffffffffffffffffff1673ffffffffffffffffffffffffffffffffffffffff16815260200190815260200160002060006101000a81548160ff0219169083151502179055506002600081819054906101000a900461ffff168092919060010191906101000a81548161ffff021916908361ffff160217905550508260016000600260009054906101000a900461ffff1661ffff1661ffff16815260200190815260200160002060020160026101000a81548173ffffffffffffffffffffffffffffffffffffffff021916908373ffffffffffffffffffffffffffffffffffffffff1602179055508160016000600260009054906101000a900461ffff1661ffff1661ffff168152602001908152602001600020600001908051906020019061103f929190611628565b508060016000600260009054906101000a900461ffff1661ffff1661ffff1681526020019081526020016000206001019080519060200190611082929190611628565b50600260009054906101000a900461ffff1660016000600260009054906101000a900461ffff1661ffff1661ffff16815260200190815260200160002060020160006101000a81548161ffff021916908361ffff160217905550600060016000600260009054906101000a900461ffff1661ffff1661ffff16815260200190815260200160002060030181905550600260009054906101000a900461ffff16600460008573ffffffffffffffffffffffffffffffffffffffff1673ffffffffffffffffffffffffffffffffffffffff16815260200190815260200160002060006101000a81548161ffff021916908361ffff1602179055507ff711540f34d729d036431d051198fe18d9fd348ad9aa68dfc8b27d5c5f27710783838342604051808573ffffffffffffffffffffffffffffffffffffffff1673ffffffffffffffffffffffffffffffffffffffff1681526020018060200180602001848152602001838103835286818151815260200191508051906020019080838360005b8381101561121b578082015181840152602081019050611200565b50505050905090810190601f1680156112485780820380516001836020036101000a031916815260200191505b50838103825285818151815260200191508051906020019080838360005b83811015611281578082015181840152602081019050611266565b50505050905090810190601f1680156112ae5780820380516001836020036101000a031916815260200191505b50965050505050505060405180910390a1505050565b6112cc610d65565b61133e576040517f08c379a00000000000000000000000000000000000000000000000000000000081526004018080602001828103825260208152602001807f4f776e61626c653a2063616c6c6572206973206e6f7420746865206f776e657281525060200191505060405180910390fd5b61134781611424565b50565b6000808284019050838110156113c8576040517f08c379a000000000000000000000000000000000000000000000000000000000815260040180806020018281038252601b8152602001807f536166654d6174683a206164646974696f6e206f766572666c6f77000000000081525060200191505060405180910390fd5b8091505092915050565b600061141483836040518060400160405280601e81526020017f536166654d6174683a207375627472616374696f6e206f766572666c6f770000815250611568565b905092915050565b600033905090565b600073ffffffffffffffffffffffffffffffffffffffff168173ffffffffffffffffffffffffffffffffffffffff1614156114aa576040517f08c379a00000000000000000000000000000000000000000000000000000000081526004018080602001828103825260268152602001806116ce6026913960400191505060405180910390fd5b8073ffffffffffffffffffffffffffffffffffffffff166000809054906101000a900473ffffffffffffffffffffffffffffffffffffffff1673ffffffffffffffffffffffffffffffffffffffff167f8be0079c531659141344cd1fd0a4f28419497f9722a3daafe3b4186f6b6457e060405160405180910390a3806000806101000a81548173ffffffffffffffffffffffffffffffffffffffff021916908373ffffffffffffffffffffffffffffffffffffffff16021790555050565b6000838311158290611615576040517f08c379a00000000000000000000000000000000000000000000000000000000081526004018080602001828103825283818151815260200191508051906020019080838360005b838110156115da5780820151818401526020810190506115bf565b50505050905090810190601f1680156116075780820380516001836020036101000a031916815260200191505b509250505060405180910390fd5b5060008385039050809150509392505050565b828054600181600116156101000203166002900490600052602060002090601f016020900481019282601f1061166957805160ff1916838001178555611697565b82800160010185558215611697579182015b8281111561169657825182559160200191906001019061167b565b5b5090506116a491906116a8565b5090565b6116ca91905b808211156116c65760008160009055506001016116ae565b5090565b9056fe4f776e61626c653a206e6577206f776e657220697320746865207a65726f20616464726573734e6f20746f6b656e2077697468207468697320636f6e74726163742061646472657373206578697374732e546865206164647265737320746f6b656e2062616c616e63652063616e6e6f7420676f2062656c6f77207a65726f2ea265627a7a723158207045400f39548afb74552d1443eb5801ad48a9d9731aa73bc427a7e456a9e24b64736f6c63430005100032",
  "source": "// SPDX-License-Identifier: MIT\r\n\r\npragma solidity >=0.5.0 < 0.8.0;\r\n\r\nimport \"@openzeppelin/contracts/ownership/Ownable.sol\";\r\nimport \"@openzeppelin/contracts/math/SafeMath.sol\";\r\nimport \"@openzeppelin/contracts/token/ERC20/IERC20.sol\";\r\n\r\ncontract Faucet is Ownable {\r\n    using SafeMath for uint;\r\n\r\n    struct Token {\r\n        string tokenName;\r\n        string tokenSymbol;\r\n        uint16 tokenIndex;\r\n        address tokenAddress;\r\n        uint tokenBalance;\r\n    }\r\n\r\n    mapping (uint16 => Token) tokens;\r\n    uint16 tokenIndex;\r\n    mapping (address => bool) tokenList;\r\n    mapping (address => uint16) tokenIndexList;\r\n\r\n    event TokenAdded(address _tokenAddress, string _tokenName, string _tokenSymbol, uint _timeStamp);\r\n    event TokenDeposited(address _from, address _tokenAddress, uint _amount, uint _timeStamp);\r\n    event TokenWithdrawn(address _to, uint _amount, uint _timeStamp);\r\n\r\n    function addToken(address _tokenAddress, string memory _tokenName, string memory _tokenSymbol) public onlyOwner {\r\n        require(tokenList[_tokenAddress] == false, \"Token Already Exists\");\r\n\r\n        tokenList[_tokenAddress] = true;\r\n        tokenIndex++;\r\n        tokens[tokenIndex].tokenAddress = _tokenAddress;\r\n        tokens[tokenIndex].tokenName = _tokenName;\r\n        tokens[tokenIndex].tokenSymbol = _tokenSymbol;\r\n        tokens[tokenIndex].tokenIndex = tokenIndex;\r\n        tokens[tokenIndex].tokenBalance = 0;\r\n        tokenIndexList[_tokenAddress] = tokenIndex;\r\n        emit TokenAdded(_tokenAddress,_tokenName,_tokenSymbol,now);\r\n    }\r\n\r\n    function depositToken(address _tokenAddress, uint _amount) public {\r\n        require(tokenList[_tokenAddress] == true,\"No token with this contract address exists.\");\r\n        uint16 tokenSymbolIndex = tokenIndexList[_tokenAddress];\r\n        require(tokens[tokenSymbolIndex].tokenAddress != address(0),\"Address 0\");\r\n\r\n        IERC20 thisToken = IERC20(tokens[tokenSymbolIndex].tokenAddress);\r\n\r\n        require(thisToken.transferFrom(msg.sender, address(this), _amount) == true,\"Token Deposit Failed\");\r\n        tokens[tokenSymbolIndex].tokenBalance = tokens[tokenSymbolIndex].tokenBalance.add(_amount);\r\n        emit TokenDeposited(msg.sender,_tokenAddress,_amount,now);\r\n    }\r\n\r\n    function getTokenBalance(address _tokenAddress) public view returns (uint) {\r\n        require(tokenList[_tokenAddress] == true,\"No token with this contract address exists.\");\r\n        uint16 tokenSymbolIndex = tokenIndexList[_tokenAddress];\r\n\r\n        return tokens[tokenSymbolIndex].tokenBalance;\r\n    }\r\n\r\n    function withdraw() public {\r\n        uint _amount = 1000000000000000000000;\r\n        for(uint16 i = 1; i <= tokenIndex;++i) {\r\n            IERC20 thisToken = IERC20(tokens[i].tokenAddress);\r\n            uint tempVal = tokens[i].tokenBalance.sub(_amount);\r\n            require(tempVal >= 0,\"The address token balance cannot go below zero.\");\r\n\r\n            tokens[i].tokenBalance = tempVal;\r\n            require(thisToken.transfer(msg.sender, _amount) == true,\"Token Withdrawal Failed\");\r\n        }\r\n        emit TokenWithdrawn(msg.sender,_amount,now);\r\n    }\r\n}",
  "sourcePath": "E:/Binance/dexmatch/truffle/contracts/faucet.sol",
  "compiler": {
    "name": "solc",
    "version": "0.5.16+commit.9c3226ce.Emscripten.clang"
  },
  "schemaVersion": "3.3.2",
  "updatedAt": "2021-01-04T00:04:41.145Z",
  "networkType": "ethereum",
  "devdoc": {
    "methods": {
      "isOwner()": {
        "details": "Returns true if the caller is the current owner."
      },
      "owner()": {
        "details": "Returns the address of the current owner."
      },
      "renounceOwnership()": {
        "details": "Leaves the contract without owner. It will not be possible to call `onlyOwner` functions anymore. Can only be called by the current owner.     * NOTE: Renouncing ownership will leave the contract without an owner, thereby removing any functionality that is only available to the owner."
      },
      "transferOwnership(address)": {
        "details": "Transfers ownership of the contract to a new account (`newOwner`). Can only be called by the current owner."
      }
    }
  },
  "userdoc": {
    "methods": {}
  }
}